{
  "_format": "hh-sol-artifact-1",
  "contractName": "NFT",
  "sourceName": "contracts/NFT.sol",
  "abi": [
    {
      "inputs": [],
      "stateMutability": "nonpayable",
      "type": "constructor"
    },
    {
      "anonymous": false,
      "inputs": [
        {
          "indexed": true,
          "internalType": "address",
          "name": "owner",
          "type": "address"
        },
        {
          "indexed": true,
          "internalType": "address",
          "name": "approved",
          "type": "address"
        },
        {
          "indexed": true,
          "internalType": "uint256",
          "name": "tokenId",
          "type": "uint256"
        }
      ],
      "name": "Approval",
      "type": "event"
    },
    {
      "anonymous": false,
      "inputs": [
        {
          "indexed": true,
          "internalType": "address",
          "name": "owner",
          "type": "address"
        },
        {
          "indexed": true,
          "internalType": "address",
          "name": "operator",
          "type": "address"
        },
        {
          "indexed": false,
          "internalType": "bool",
          "name": "approved",
          "type": "bool"
        }
      ],
      "name": "ApprovalForAll",
      "type": "event"
    },
    {
      "anonymous": false,
      "inputs": [
        {
          "indexed": false,
          "internalType": "uint256",
          "name": "_fromTokenId",
          "type": "uint256"
        },
        {
          "indexed": false,
          "internalType": "uint256",
          "name": "_toTokenId",
          "type": "uint256"
        }
      ],
      "name": "BatchMetadataUpdate",
      "type": "event"
    },
    {
      "anonymous": false,
      "inputs": [
        {
          "indexed": false,
          "internalType": "uint256",
          "name": "_tokenId",
          "type": "uint256"
        }
      ],
      "name": "MetadataUpdate",
      "type": "event"
    },
    {
      "anonymous": false,
      "inputs": [
        {
          "indexed": true,
          "internalType": "address",
          "name": "from",
          "type": "address"
        },
        {
          "indexed": true,
          "internalType": "address",
          "name": "to",
          "type": "address"
        },
        {
          "indexed": true,
          "internalType": "uint256",
          "name": "tokenId",
          "type": "uint256"
        }
      ],
      "name": "Transfer",
      "type": "event"
    },
    {
      "inputs": [
        {
          "internalType": "address",
          "name": "to",
          "type": "address"
        },
        {
          "internalType": "uint256",
          "name": "tokenId",
          "type": "uint256"
        }
      ],
      "name": "approve",
      "outputs": [],
      "stateMutability": "nonpayable",
      "type": "function"
    },
    {
      "inputs": [
        {
          "internalType": "address",
          "name": "owner",
          "type": "address"
        }
      ],
      "name": "balanceOf",
      "outputs": [
        {
          "internalType": "uint256",
          "name": "",
          "type": "uint256"
        }
      ],
      "stateMutability": "view",
      "type": "function"
    },
    {
      "inputs": [
        {
          "internalType": "uint256",
          "name": "tokenId",
          "type": "uint256"
        }
      ],
      "name": "getApproved",
      "outputs": [
        {
          "internalType": "address",
          "name": "",
          "type": "address"
        }
      ],
      "stateMutability": "view",
      "type": "function"
    },
    {
      "inputs": [
        {
          "internalType": "address",
          "name": "owner",
          "type": "address"
        },
        {
          "internalType": "address",
          "name": "operator",
          "type": "address"
        }
      ],
      "name": "isApprovedForAll",
      "outputs": [
        {
          "internalType": "bool",
          "name": "",
          "type": "bool"
        }
      ],
      "stateMutability": "view",
      "type": "function"
    },
    {
      "inputs": [
        {
          "internalType": "string",
          "name": "_tokenURI",
          "type": "string"
        },
        {
          "internalType": "uint256",
          "name": "price",
          "type": "uint256"
        }
      ],
      "name": "mint",
      "outputs": [
        {
          "internalType": "uint256",
          "name": "",
          "type": "uint256"
        }
      ],
      "stateMutability": "nonpayable",
      "type": "function"
    },
    {
      "inputs": [],
      "name": "name",
      "outputs": [
        {
          "internalType": "string",
          "name": "",
          "type": "string"
        }
      ],
      "stateMutability": "view",
      "type": "function"
    },
    {
      "inputs": [],
      "name": "owner",
      "outputs": [
        {
          "internalType": "address",
          "name": "",
          "type": "address"
        }
      ],
      "stateMutability": "view",
      "type": "function"
    },
    {
      "inputs": [
        {
          "internalType": "uint256",
          "name": "tokenId",
          "type": "uint256"
        }
      ],
      "name": "ownerOf",
      "outputs": [
        {
          "internalType": "address",
          "name": "",
          "type": "address"
        }
      ],
      "stateMutability": "view",
      "type": "function"
    },
    {
      "inputs": [
        {
          "internalType": "address",
          "name": "from",
          "type": "address"
        },
        {
          "internalType": "address",
          "name": "to",
          "type": "address"
        },
        {
          "internalType": "uint256",
          "name": "tokenId",
          "type": "uint256"
        }
      ],
      "name": "safeTransferFrom",
      "outputs": [],
      "stateMutability": "nonpayable",
      "type": "function"
    },
    {
      "inputs": [
        {
          "internalType": "address",
          "name": "from",
          "type": "address"
        },
        {
          "internalType": "address",
          "name": "to",
          "type": "address"
        },
        {
          "internalType": "uint256",
          "name": "tokenId",
          "type": "uint256"
        },
        {
          "internalType": "bytes",
          "name": "data",
          "type": "bytes"
        }
      ],
      "name": "safeTransferFrom",
      "outputs": [],
      "stateMutability": "nonpayable",
      "type": "function"
    },
    {
      "inputs": [
        {
          "internalType": "address",
          "name": "operator",
          "type": "address"
        },
        {
          "internalType": "bool",
          "name": "approved",
          "type": "bool"
        }
      ],
      "name": "setApprovalForAll",
      "outputs": [],
      "stateMutability": "nonpayable",
      "type": "function"
    },
    {
      "inputs": [
        {
          "internalType": "bytes4",
          "name": "interfaceId",
          "type": "bytes4"
        }
      ],
      "name": "supportsInterface",
      "outputs": [
        {
          "internalType": "bool",
          "name": "",
          "type": "bool"
        }
      ],
      "stateMutability": "view",
      "type": "function"
    },
    {
      "inputs": [],
      "name": "symbol",
      "outputs": [
        {
          "internalType": "string",
          "name": "",
          "type": "string"
        }
      ],
      "stateMutability": "view",
      "type": "function"
    },
    {
      "inputs": [],
      "name": "tokenCount",
      "outputs": [
        {
          "internalType": "uint256",
          "name": "",
          "type": "uint256"
        }
      ],
      "stateMutability": "view",
      "type": "function"
    },
    {
      "inputs": [
        {
          "internalType": "uint256",
          "name": "tokenId",
          "type": "uint256"
        }
      ],
      "name": "tokenURI",
      "outputs": [
        {
          "internalType": "string",
          "name": "",
          "type": "string"
        }
      ],
      "stateMutability": "view",
      "type": "function"
    },
    {
      "inputs": [
        {
          "internalType": "address",
          "name": "from",
          "type": "address"
        },
        {
          "internalType": "address",
          "name": "to",
          "type": "address"
        },
        {
          "internalType": "uint256",
          "name": "tokenId",
          "type": "uint256"
        }
      ],
      "name": "transferFrom",
      "outputs": [],
      "stateMutability": "nonpayable",
      "type": "function"
    },
    {
      "inputs": [],
      "name": "units",
      "outputs": [
        {
          "internalType": "uint256",
          "name": "",
          "type": "uint256"
        }
      ],
      "stateMutability": "view",
      "type": "function"
    }
  ],
  "bytecode": "0x6080604052670de0b6b3a7640000600a553480156200001d57600080fd5b506040518060400160405280600f81526020017f5265616c20457374617465204e465400000000000000000000000000000000008152506040518060400160405280600581526020017f52454e465400000000000000000000000000000000000000000000000000000081525081600090816200009b91906200042f565b508060019081620000ad91906200042f565b50505073f1e3a5842eeef51f2967b3f05d45dd4f4205ff40600860006101000a81548173ffffffffffffffffffffffffffffffffffffffff021916908373ffffffffffffffffffffffffffffffffffffffff16021790555073326c977e6efc84e512bb9c30f76e30c160ed06fb600960006101000a81548173ffffffffffffffffffffffffffffffffffffffff021916908373ffffffffffffffffffffffffffffffffffffffff16021790555073cfba60b6597b02befe53f667ebe23b140c1f64fe600b60006101000a81548173ffffffffffffffffffffffffffffffffffffffff021916908373ffffffffffffffffffffffffffffffffffffffff16021790555062000516565b600081519050919050565b7f4e487b7100000000000000000000000000000000000000000000000000000000600052604160045260246000fd5b7f4e487b7100000000000000000000000000000000000000000000000000000000600052602260045260246000fd5b600060028204905060018216806200023757607f821691505b6020821081036200024d576200024c620001ef565b5b50919050565b60008190508160005260206000209050919050565b60006020601f8301049050919050565b600082821b905092915050565b600060088302620002b77fffffffffffffffffffffffffffffffffffffffffffffffffffffffffffffffff8262000278565b620002c3868362000278565b95508019841693508086168417925050509392505050565b6000819050919050565b6000819050919050565b6000620003106200030a6200030484620002db565b620002e5565b620002db565b9050919050565b6000819050919050565b6200032c83620002ef565b620003446200033b8262000317565b84845462000285565b825550505050565b600090565b6200035b6200034c565b6200036881848462000321565b505050565b5b8181101562000390576200038460008262000351565b6001810190506200036e565b5050565b601f821115620003df57620003a98162000253565b620003b48462000268565b81016020851015620003c4578190505b620003dc620003d38562000268565b8301826200036d565b50505b505050565b600082821c905092915050565b60006200040460001984600802620003e4565b1980831691505092915050565b60006200041f8383620003f1565b9150826002028217905092915050565b6200043a82620001b5565b67ffffffffffffffff811115620004565762000455620001c0565b5b6200046282546200021e565b6200046f82828562000394565b600060209050601f831160018114620004a7576000841562000492578287015190505b6200049e858262000411565b8655506200050e565b601f198416620004b78662000253565b60005b82811015620004e157848901518255600182019150602085019450602081019050620004ba565b86831015620005015784890151620004fd601f891682620003f1565b8355505b6001600288020188555050505b505050505050565b612ee280620005266000396000f3fe608060405234801561001057600080fd5b506004361061010b5760003560e01c806370a08231116100a25780639f181b5e116100715780639f181b5e146102cc578063a22cb465146102ea578063b88d4fde14610306578063c87b56dd14610322578063e985e9c5146103525761010b565b806370a08231146102425780638da5cb5b1461027257806395d89b4114610290578063976a8435146102ae5761010b565b8063095ea7b3116100de578063095ea7b3146101be57806323b872dd146101da57806342842e0e146101f65780636352211e146102125761010b565b806301ffc9a714610110578063056b01ce1461014057806306fdde0314610170578063081812fc1461018e575b600080fd5b61012a60048036038101906101259190611c6f565b610382565b6040516101379190611cb7565b60405180910390f35b61015a60048036038101906101559190611e4e565b6103e3565b6040516101679190611eb9565b60405180910390f35b6101786105b9565b6040516101859190611f53565b60405180910390f35b6101a860048036038101906101a39190611f75565b61064b565b6040516101b59190611fe3565b60405180910390f35b6101d860048036038101906101d3919061202a565b610691565b005b6101f460048036038101906101ef919061206a565b6107a8565b005b610210600480360381019061020b919061206a565b610808565b005b61022c60048036038101906102279190611f75565b610828565b6040516102399190611fe3565b60405180910390f35b61025c600480360381019061025791906120bd565b6108ae565b6040516102699190611eb9565b60405180910390f35b61027a610965565b6040516102879190611fe3565b60405180910390f35b61029861098b565b6040516102a59190611f53565b60405180910390f35b6102b6610a1d565b6040516102c39190611eb9565b60405180910390f35b6102d4610a23565b6040516102e19190611eb9565b60405180910390f35b61030460048036038101906102ff9190612116565b610a29565b005b610320600480360381019061031b91906121f7565b610a3f565b005b61033c60048036038101906103379190611f75565b610aa1565b6040516103499190611f53565b60405180910390f35b61036c6004803603810190610367919061227a565b610bb3565b6040516103799190611cb7565b60405180910390f35b6000634906490660e01b7bffffffffffffffffffffffffffffffffffffffffffffffffffffffff1916827bffffffffffffffffffffffffffffffffffffffffffffffffffffffff191614806103dc57506103db82610c47565b5b9050919050565b600080600860009054906101000a900473ffffffffffffffffffffffffffffffffffffffff1673ffffffffffffffffffffffffffffffffffffffff166323b872dd33600b60009054906101000a900473ffffffffffffffffffffffffffffffffffffffff16866040518463ffffffff1660e01b8152600401610467939291906122ba565b6020604051808303816000875af1158015610486573d6000803e3d6000fd5b505050506040513d601f19601f820116820180604052508101906104aa9190612306565b90506000600960009054906101000a900473ffffffffffffffffffffffffffffffffffffffff1673ffffffffffffffffffffffffffffffffffffffff166323b872dd33600b60009054906101000a900473ffffffffffffffffffffffffffffffffffffffff16670de0b6b3a76400006040518463ffffffff1660e01b815260040161053793929190612378565b6020604051808303816000875af1158015610556573d6000803e3d6000fd5b505050506040513d601f19601f8201168201806040525081019061057a9190612306565b90506007600081548092919061058f906123de565b91905055506105a033600754610d29565b6105ac60075486610d47565b6007549250505092915050565b6060600080546105c890612455565b80601f01602080910402602001604051908101604052809291908181526020018280546105f490612455565b80156106415780601f1061061657610100808354040283529160200191610641565b820191906000526020600020905b81548152906001019060200180831161062457829003601f168201915b5050505050905090565b600061065682610deb565b6004600083815260200190815260200160002060009054906101000a900473ffffffffffffffffffffffffffffffffffffffff169050919050565b600061069c82610828565b90508073ffffffffffffffffffffffffffffffffffffffff168373ffffffffffffffffffffffffffffffffffffffff160361070c576040517f08c379a0000000000000000000000000000000000000000000000000000000008152600401610703906124f8565b60405180910390fd5b8073ffffffffffffffffffffffffffffffffffffffff1661072b610e36565b73ffffffffffffffffffffffffffffffffffffffff16148061075a575061075981610754610e36565b610bb3565b5b610799576040517f08c379a00000000000000000000000000000000000000000000000000000000081526004016107909061258a565b60405180910390fd5b6107a38383610e3e565b505050565b6107b96107b3610e36565b82610ef7565b6107f8576040517f08c379a00000000000000000000000000000000000000000000000000000000081526004016107ef9061261c565b60405180910390fd5b610803838383610f8c565b505050565b61082383838360405180602001604052806000815250610a3f565b505050565b60008061083483611285565b9050600073ffffffffffffffffffffffffffffffffffffffff168173ffffffffffffffffffffffffffffffffffffffff16036108a5576040517f08c379a000000000000000000000000000000000000000000000000000000000815260040161089c90612688565b60405180910390fd5b80915050919050565b60008073ffffffffffffffffffffffffffffffffffffffff168273ffffffffffffffffffffffffffffffffffffffff160361091e576040517f08c379a00000000000000000000000000000000000000000000000000000000081526004016109159061271a565b60405180910390fd5b600360008373ffffffffffffffffffffffffffffffffffffffff1673ffffffffffffffffffffffffffffffffffffffff168152602001908152602001600020549050919050565b600b60009054906101000a900473ffffffffffffffffffffffffffffffffffffffff1681565b60606001805461099a90612455565b80601f01602080910402602001604051908101604052809291908181526020018280546109c690612455565b8015610a135780601f106109e857610100808354040283529160200191610a13565b820191906000526020600020905b8154815290600101906020018083116109f657829003601f168201915b5050505050905090565b600a5481565b60075481565b610a3b610a34610e36565b83836112c2565b5050565b610a50610a4a610e36565b83610ef7565b610a8f576040517f08c379a0000000000000000000000000000000000000000000000000000000008152600401610a869061261c565b60405180910390fd5b610a9b8484848461142e565b50505050565b6060610aac82610deb565b6000600660008481526020019081526020016000208054610acc90612455565b80601f0160208091040260200160405190810160405280929190818152602001828054610af890612455565b8015610b455780601f10610b1a57610100808354040283529160200191610b45565b820191906000526020600020905b815481529060010190602001808311610b2857829003601f168201915b505050505090506000610b5661148a565b90506000815103610b6b578192505050610bae565b600082511115610ba0578082604051602001610b88929190612776565b60405160208183030381529060405292505050610bae565b610ba9846114a1565b925050505b919050565b6000600560008473ffffffffffffffffffffffffffffffffffffffff1673ffffffffffffffffffffffffffffffffffffffff16815260200190815260200160002060008373ffffffffffffffffffffffffffffffffffffffff1673ffffffffffffffffffffffffffffffffffffffff16815260200190815260200160002060009054906101000a900460ff16905092915050565b60007f80ac58cd000000000000000000000000000000000000000000000000000000007bffffffffffffffffffffffffffffffffffffffffffffffffffffffff1916827bffffffffffffffffffffffffffffffffffffffffffffffffffffffff19161480610d1257507f5b5e139f000000000000000000000000000000000000000000000000000000007bffffffffffffffffffffffffffffffffffffffffffffffffffffffff1916827bffffffffffffffffffffffffffffffffffffffffffffffffffffffff1916145b80610d225750610d2182611509565b5b9050919050565b610d43828260405180602001604052806000815250611573565b5050565b610d50826115ce565b610d8f576040517f08c379a0000000000000000000000000000000000000000000000000000000008152600401610d869061280c565b60405180910390fd5b80600660008481526020019081526020016000209081610daf91906129ce565b507ff8e1a15aba9398e019f0b49df1a4fde98ee17ae345cb5f6b5e2c27f5033e8ce782604051610ddf9190611eb9565b60405180910390a15050565b610df4816115ce565b610e33576040517f08c379a0000000000000000000000000000000000000000000000000000000008152600401610e2a90612688565b60405180910390fd5b50565b600033905090565b816004600083815260200190815260200160002060006101000a81548173ffffffffffffffffffffffffffffffffffffffff021916908373ffffffffffffffffffffffffffffffffffffffff160217905550808273ffffffffffffffffffffffffffffffffffffffff16610eb183610828565b73ffffffffffffffffffffffffffffffffffffffff167f8c5be1e5ebec7d5bd14f71427d1e84f3dd0314c0f7b2291e5b200ac8c7c3b92560405160405180910390a45050565b600080610f0383610828565b90508073ffffffffffffffffffffffffffffffffffffffff168473ffffffffffffffffffffffffffffffffffffffff161480610f455750610f448185610bb3565b5b80610f8357508373ffffffffffffffffffffffffffffffffffffffff16610f6b8461064b565b73ffffffffffffffffffffffffffffffffffffffff16145b91505092915050565b8273ffffffffffffffffffffffffffffffffffffffff16610fac82610828565b73ffffffffffffffffffffffffffffffffffffffff1614611002576040517f08c379a0000000000000000000000000000000000000000000000000000000008152600401610ff990612b12565b60405180910390fd5b600073ffffffffffffffffffffffffffffffffffffffff168273ffffffffffffffffffffffffffffffffffffffff1603611071576040517f08c379a000000000000000000000000000000000000000000000000000000000815260040161106890612ba4565b60405180910390fd5b61107e838383600161160f565b8273ffffffffffffffffffffffffffffffffffffffff1661109e82610828565b73ffffffffffffffffffffffffffffffffffffffff16146110f4576040517f08c379a00000000000000000000000000000000000000000000000000000000081526004016110eb90612b12565b60405180910390fd5b6004600082815260200190815260200160002060006101000a81549073ffffffffffffffffffffffffffffffffffffffff02191690556001600360008573ffffffffffffffffffffffffffffffffffffffff1673ffffffffffffffffffffffffffffffffffffffff168152602001908152602001600020600082825403925050819055506001600360008473ffffffffffffffffffffffffffffffffffffffff1673ffffffffffffffffffffffffffffffffffffffff16815260200190815260200160002060008282540192505081905550816002600083815260200190815260200160002060006101000a81548173ffffffffffffffffffffffffffffffffffffffff021916908373ffffffffffffffffffffffffffffffffffffffff160217905550808273ffffffffffffffffffffffffffffffffffffffff168473ffffffffffffffffffffffffffffffffffffffff167fddf252ad1be2c89b69c2b068fc378daa952ba7f163c4a11628f55a4df523b3ef60405160405180910390a46112808383836001611615565b505050565b60006002600083815260200190815260200160002060009054906101000a900473ffffffffffffffffffffffffffffffffffffffff169050919050565b8173ffffffffffffffffffffffffffffffffffffffff168373ffffffffffffffffffffffffffffffffffffffff1603611330576040517f08c379a000000000000000000000000000000000000000000000000000000000815260040161132790612c10565b60405180910390fd5b80600560008573ffffffffffffffffffffffffffffffffffffffff1673ffffffffffffffffffffffffffffffffffffffff16815260200190815260200160002060008473ffffffffffffffffffffffffffffffffffffffff1673ffffffffffffffffffffffffffffffffffffffff16815260200190815260200160002060006101000a81548160ff0219169083151502179055508173ffffffffffffffffffffffffffffffffffffffff168373ffffffffffffffffffffffffffffffffffffffff167f17307eab39ab6107e8899845ad3d59bd9653f200f220920489ca2b5937696c31836040516114219190611cb7565b60405180910390a3505050565b611439848484610f8c565b6114458484848461161b565b611484576040517f08c379a000000000000000000000000000000000000000000000000000000000815260040161147b90612ca2565b60405180910390fd5b50505050565b606060405180602001604052806000815250905090565b60606114ac82610deb565b60006114b661148a565b905060008151116114d65760405180602001604052806000815250611501565b806114e0846117a2565b6040516020016114f1929190612776565b6040516020818303038152906040525b915050919050565b60007f01ffc9a7000000000000000000000000000000000000000000000000000000007bffffffffffffffffffffffffffffffffffffffffffffffffffffffff1916827bffffffffffffffffffffffffffffffffffffffffffffffffffffffff1916149050919050565b61157d8383611870565b61158a600084848461161b565b6115c9576040517f08c379a00000000000000000000000000000000000000000000000000000000081526004016115c090612ca2565b60405180910390fd5b505050565b60008073ffffffffffffffffffffffffffffffffffffffff166115f083611285565b73ffffffffffffffffffffffffffffffffffffffff1614159050919050565b50505050565b50505050565b600061163c8473ffffffffffffffffffffffffffffffffffffffff16611a8d565b15611795578373ffffffffffffffffffffffffffffffffffffffff1663150b7a02611665610e36565b8786866040518563ffffffff1660e01b81526004016116879493929190612d17565b6020604051808303816000875af19250505080156116c357506040513d601f19601f820116820180604052508101906116c09190612d78565b60015b611745573d80600081146116f3576040519150601f19603f3d011682016040523d82523d6000602084013e6116f8565b606091505b50600081510361173d576040517f08c379a000000000000000000000000000000000000000000000000000000000815260040161173490612ca2565b60405180910390fd5b805181602001fd5b63150b7a0260e01b7bffffffffffffffffffffffffffffffffffffffffffffffffffffffff1916817bffffffffffffffffffffffffffffffffffffffffffffffffffffffff19161491505061179a565b600190505b949350505050565b6060600060016117b184611ab0565b01905060008167ffffffffffffffff8111156117d0576117cf611ced565b5b6040519080825280601f01601f1916602001820160405280156118025781602001600182028036833780820191505090505b509050600082602001820190505b600115611865578080600190039150507f3031323334353637383961626364656600000000000000000000000000000000600a86061a8153600a858161185957611858612da5565b5b04945060008503611810575b819350505050919050565b600073ffffffffffffffffffffffffffffffffffffffff168273ffffffffffffffffffffffffffffffffffffffff16036118df576040517f08c379a00000000000000000000000000000000000000000000000000000000081526004016118d690612e20565b60405180910390fd5b6118e8816115ce565b15611928576040517f08c379a000000000000000000000000000000000000000000000000000000000815260040161191f90612e8c565b60405180910390fd5b61193660008383600161160f565b61193f816115ce565b1561197f576040517f08c379a000000000000000000000000000000000000000000000000000000000815260040161197690612e8c565b60405180910390fd5b6001600360008473ffffffffffffffffffffffffffffffffffffffff1673ffffffffffffffffffffffffffffffffffffffff16815260200190815260200160002060008282540192505081905550816002600083815260200190815260200160002060006101000a81548173ffffffffffffffffffffffffffffffffffffffff021916908373ffffffffffffffffffffffffffffffffffffffff160217905550808273ffffffffffffffffffffffffffffffffffffffff16600073ffffffffffffffffffffffffffffffffffffffff167fddf252ad1be2c89b69c2b068fc378daa952ba7f163c4a11628f55a4df523b3ef60405160405180910390a4611a89600083836001611615565b5050565b6000808273ffffffffffffffffffffffffffffffffffffffff163b119050919050565b600080600090507a184f03e93ff9f4daa797ed6e38ed64bf6a1f0100000000000000008310611b0e577a184f03e93ff9f4daa797ed6e38ed64bf6a1f0100000000000000008381611b0457611b03612da5565b5b0492506040810190505b6d04ee2d6d415b85acef81000000008310611b4b576d04ee2d6d415b85acef81000000008381611b4157611b40612da5565b5b0492506020810190505b662386f26fc100008310611b7a57662386f26fc100008381611b7057611b6f612da5565b5b0492506010810190505b6305f5e1008310611ba3576305f5e1008381611b9957611b98612da5565b5b0492506008810190505b6127108310611bc8576127108381611bbe57611bbd612da5565b5b0492506004810190505b60648310611beb5760648381611be157611be0612da5565b5b0492506002810190505b600a8310611bfa576001810190505b80915050919050565b6000604051905090565b600080fd5b600080fd5b60007fffffffff0000000000000000000000000000000000000000000000000000000082169050919050565b611c4c81611c17565b8114611c5757600080fd5b50565b600081359050611c6981611c43565b92915050565b600060208284031215611c8557611c84611c0d565b5b6000611c9384828501611c5a565b91505092915050565b60008115159050919050565b611cb181611c9c565b82525050565b6000602082019050611ccc6000830184611ca8565b92915050565b600080fd5b600080fd5b6000601f19601f8301169050919050565b7f4e487b7100000000000000000000000000000000000000000000000000000000600052604160045260246000fd5b611d2582611cdc565b810181811067ffffffffffffffff82111715611d4457611d43611ced565b5b80604052505050565b6000611d57611c03565b9050611d638282611d1c565b919050565b600067ffffffffffffffff821115611d8357611d82611ced565b5b611d8c82611cdc565b9050602081019050919050565b82818337600083830152505050565b6000611dbb611db684611d68565b611d4d565b905082815260208101848484011115611dd757611dd6611cd7565b5b611de2848285611d99565b509392505050565b600082601f830112611dff57611dfe611cd2565b5b8135611e0f848260208601611da8565b91505092915050565b6000819050919050565b611e2b81611e18565b8114611e3657600080fd5b50565b600081359050611e4881611e22565b92915050565b60008060408385031215611e6557611e64611c0d565b5b600083013567ffffffffffffffff811115611e8357611e82611c12565b5b611e8f85828601611dea565b9250506020611ea085828601611e39565b9150509250929050565b611eb381611e18565b82525050565b6000602082019050611ece6000830184611eaa565b92915050565b600081519050919050565b600082825260208201905092915050565b60005b83811015611f0e578082015181840152602081019050611ef3565b60008484015250505050565b6000611f2582611ed4565b611f2f8185611edf565b9350611f3f818560208601611ef0565b611f4881611cdc565b840191505092915050565b60006020820190508181036000830152611f6d8184611f1a565b905092915050565b600060208284031215611f8b57611f8a611c0d565b5b6000611f9984828501611e39565b91505092915050565b600073ffffffffffffffffffffffffffffffffffffffff82169050919050565b6000611fcd82611fa2565b9050919050565b611fdd81611fc2565b82525050565b6000602082019050611ff86000830184611fd4565b92915050565b61200781611fc2565b811461201257600080fd5b50565b60008135905061202481611ffe565b92915050565b6000806040838503121561204157612040611c0d565b5b600061204f85828601612015565b925050602061206085828601611e39565b9150509250929050565b60008060006060848603121561208357612082611c0d565b5b600061209186828701612015565b93505060206120a286828701612015565b92505060406120b386828701611e39565b9150509250925092565b6000602082840312156120d3576120d2611c0d565b5b60006120e184828501612015565b91505092915050565b6120f381611c9c565b81146120fe57600080fd5b50565b600081359050612110816120ea565b92915050565b6000806040838503121561212d5761212c611c0d565b5b600061213b85828601612015565b925050602061214c85828601612101565b9150509250929050565b600067ffffffffffffffff82111561217157612170611ced565b5b61217a82611cdc565b9050602081019050919050565b600061219a61219584612156565b611d4d565b9050828152602081018484840111156121b6576121b5611cd7565b5b6121c1848285611d99565b509392505050565b600082601f8301126121de576121dd611cd2565b5b81356121ee848260208601612187565b91505092915050565b6000806000806080858703121561221157612210611c0d565b5b600061221f87828801612015565b945050602061223087828801612015565b935050604061224187828801611e39565b925050606085013567ffffffffffffffff81111561226257612261611c12565b5b61226e878288016121c9565b91505092959194509250565b6000806040838503121561229157612290611c0d565b5b600061229f85828601612015565b92505060206122b085828601612015565b9150509250929050565b60006060820190506122cf6000830186611fd4565b6122dc6020830185611fd4565b6122e96040830184611eaa565b949350505050565b600081519050612300816120ea565b92915050565b60006020828403121561231c5761231b611c0d565b5b600061232a848285016122f1565b91505092915050565b6000819050919050565b6000819050919050565b600061236261235d61235884612333565b61233d565b611e18565b9050919050565b61237281612347565b82525050565b600060608201905061238d6000830186611fd4565b61239a6020830185611fd4565b6123a76040830184612369565b949350505050565b7f4e487b7100000000000000000000000000000000000000000000000000000000600052601160045260246000fd5b60006123e982611e18565b91507fffffffffffffffffffffffffffffffffffffffffffffffffffffffffffffffff820361241b5761241a6123af565b5b600182019050919050565b7f4e487b7100000000000000000000000000000000000000000000000000000000600052602260045260246000fd5b6000600282049050600182168061246d57607f821691505b6020821081036124805761247f612426565b5b50919050565b7f4552433732313a20617070726f76616c20746f2063757272656e74206f776e6560008201527f7200000000000000000000000000000000000000000000000000000000000000602082015250565b60006124e2602183611edf565b91506124ed82612486565b604082019050919050565b60006020820190508181036000830152612511816124d5565b9050919050565b7f4552433732313a20617070726f76652063616c6c6572206973206e6f7420746f60008201527f6b656e206f776e6572206f7220617070726f76656420666f7220616c6c000000602082015250565b6000612574603d83611edf565b915061257f82612518565b604082019050919050565b600060208201905081810360008301526125a381612567565b9050919050565b7f4552433732313a2063616c6c6572206973206e6f7420746f6b656e206f776e6560008201527f72206f7220617070726f76656400000000000000000000000000000000000000602082015250565b6000612606602d83611edf565b9150612611826125aa565b604082019050919050565b60006020820190508181036000830152612635816125f9565b9050919050565b7f4552433732313a20696e76616c696420746f6b656e2049440000000000000000600082015250565b6000612672601883611edf565b915061267d8261263c565b602082019050919050565b600060208201905081810360008301526126a181612665565b9050919050565b7f4552433732313a2061646472657373207a65726f206973206e6f74206120766160008201527f6c6964206f776e65720000000000000000000000000000000000000000000000602082015250565b6000612704602983611edf565b915061270f826126a8565b604082019050919050565b60006020820190508181036000830152612733816126f7565b9050919050565b600081905092915050565b600061275082611ed4565b61275a818561273a565b935061276a818560208601611ef0565b80840191505092915050565b60006127828285612745565b915061278e8284612745565b91508190509392505050565b7f45524337323155524953746f726167653a2055524920736574206f66206e6f6e60008201527f6578697374656e7420746f6b656e000000000000000000000000000000000000602082015250565b60006127f6602e83611edf565b91506128018261279a565b604082019050919050565b60006020820190508181036000830152612825816127e9565b9050919050565b60008190508160005260206000209050919050565b60006020601f8301049050919050565b600082821b905092915050565b60006008830261288e7fffffffffffffffffffffffffffffffffffffffffffffffffffffffffffffffff82612851565b6128988683612851565b95508019841693508086168417925050509392505050565b60006128cb6128c66128c184611e18565b61233d565b611e18565b9050919050565b6000819050919050565b6128e5836128b0565b6128f96128f1826128d2565b84845461285e565b825550505050565b600090565b61290e612901565b6129198184846128dc565b505050565b5b8181101561293d57612932600082612906565b60018101905061291f565b5050565b601f821115612982576129538161282c565b61295c84612841565b8101602085101561296b578190505b61297f61297785612841565b83018261291e565b50505b505050565b600082821c905092915050565b60006129a560001984600802612987565b1980831691505092915050565b60006129be8383612994565b9150826002028217905092915050565b6129d782611ed4565b67ffffffffffffffff8111156129f0576129ef611ced565b5b6129fa8254612455565b612a05828285612941565b600060209050601f831160018114612a385760008415612a26578287015190505b612a3085826129b2565b865550612a98565b601f198416612a468661282c565b60005b82811015612a6e57848901518255600182019150602085019450602081019050612a49565b86831015612a8b5784890151612a87601f891682612994565b8355505b6001600288020188555050505b505050505050565b7f4552433732313a207472616e736665722066726f6d20696e636f72726563742060008201527f6f776e6572000000000000000000000000000000000000000000000000000000602082015250565b6000612afc602583611edf565b9150612b0782612aa0565b604082019050919050565b60006020820190508181036000830152612b2b81612aef565b9050919050565b7f4552433732313a207472616e7366657220746f20746865207a65726f2061646460008201527f7265737300000000000000000000000000000000000000000000000000000000602082015250565b6000612b8e602483611edf565b9150612b9982612b32565b604082019050919050565b60006020820190508181036000830152612bbd81612b81565b9050919050565b7f4552433732313a20617070726f766520746f2063616c6c657200000000000000600082015250565b6000612bfa601983611edf565b9150612c0582612bc4565b602082019050919050565b60006020820190508181036000830152612c2981612bed565b9050919050565b7f4552433732313a207472616e7366657220746f206e6f6e20455243373231526560008201527f63656976657220696d706c656d656e7465720000000000000000000000000000602082015250565b6000612c8c603283611edf565b9150612c9782612c30565b604082019050919050565b60006020820190508181036000830152612cbb81612c7f565b9050919050565b600081519050919050565b600082825260208201905092915050565b6000612ce982612cc2565b612cf38185612ccd565b9350612d03818560208601611ef0565b612d0c81611cdc565b840191505092915050565b6000608082019050612d2c6000830187611fd4565b612d396020830186611fd4565b612d466040830185611eaa565b8181036060830152612d588184612cde565b905095945050505050565b600081519050612d7281611c43565b92915050565b600060208284031215612d8e57612d8d611c0d565b5b6000612d9c84828501612d63565b91505092915050565b7f4e487b7100000000000000000000000000000000000000000000000000000000600052601260045260246000fd5b7f4552433732313a206d696e7420746f20746865207a65726f2061646472657373600082015250565b6000612e0a602083611edf565b9150612e1582612dd4565b602082019050919050565b60006020820190508181036000830152612e3981612dfd565b9050919050565b7f4552433732313a20746f6b656e20616c7265616479206d696e74656400000000600082015250565b6000612e76601c83611edf565b9150612e8182612e40565b602082019050919050565b60006020820190508181036000830152612ea581612e69565b905091905056fea26469706673582212203a09f5d7c498cff82e00f70ff5deb91a78ef66ad109a834ee12968b16e4e579d64736f6c63430008130033",
  "linkReferences": {},
  "deployedLinkReferences": {}
}