{
  "_format": "hh-sol-artifact-1",
  "contractName": "NFTMarketplace",
  "sourceName": "contracts/NFTMarketplace.sol",
  "abi": [
    {
      "inputs": [],
      "stateMutability": "nonpayable",
      "type": "constructor"
    },
    {
      "inputs": [
        {
          "internalType": "address",
          "name": "",
          "type": "address"
        }
      ],
      "name": "CreatorCompensation",
      "outputs": [
        {
          "internalType": "uint256",
          "name": "",
          "type": "uint256"
        }
      ],
      "stateMutability": "view",
      "type": "function"
    },
    {
      "inputs": [
        {
          "internalType": "uint256",
          "name": "",
          "type": "uint256"
        },
        {
          "internalType": "uint256",
          "name": "",
          "type": "uint256"
        }
      ],
      "name": "DesignByType",
      "outputs": [
        {
          "internalType": "address",
          "name": "creator",
          "type": "address"
        },
        {
          "internalType": "string",
          "name": "hash",
          "type": "string"
        },
        {
          "internalType": "uint256",
          "name": "chain",
          "type": "uint256"
        }
      ],
      "stateMutability": "view",
      "type": "function"
    },
    {
      "inputs": [
        {
          "internalType": "address",
          "name": "",
          "type": "address"
        },
        {
          "internalType": "uint256",
          "name": "",
          "type": "uint256"
        }
      ],
      "name": "Designs",
      "outputs": [
        {
          "internalType": "string",
          "name": "",
          "type": "string"
        }
      ],
      "stateMutability": "view",
      "type": "function"
    },
    {
      "inputs": [
        {
          "internalType": "address",
          "name": "",
          "type": "address"
        }
      ],
      "name": "PolygonChainPrice",
      "outputs": [
        {
          "internalType": "uint256",
          "name": "",
          "type": "uint256"
        }
      ],
      "stateMutability": "view",
      "type": "function"
    },
    {
      "inputs": [
        {
          "internalType": "address",
          "name": "",
          "type": "address"
        }
      ],
      "name": "SepoilaChainPrice",
      "outputs": [
        {
          "internalType": "uint256",
          "name": "",
          "type": "uint256"
        }
      ],
      "stateMutability": "view",
      "type": "function"
    },
    {
      "inputs": [
        {
          "internalType": "uint256",
          "name": "chain",
          "type": "uint256"
        },
        {
          "internalType": "uint256",
          "name": "_designtype",
          "type": "uint256"
        },
        {
          "internalType": "string",
          "name": "_hash",
          "type": "string"
        }
      ],
      "name": "addDesign",
      "outputs": [],
      "stateMutability": "nonpayable",
      "type": "function"
    },
    {
      "inputs": [],
      "name": "autopayCreators",
      "outputs": [],
      "stateMutability": "nonpayable",
      "type": "function"
    },
    {
      "inputs": [],
      "name": "feeAccount",
      "outputs": [
        {
          "internalType": "contract ITokenTransferor",
          "name": "",
          "type": "address"
        }
      ],
      "stateMutability": "view",
      "type": "function"
    },
    {
      "inputs": [
        {
          "internalType": "address",
          "name": "creator",
          "type": "address"
        }
      ],
      "name": "getCreatorCompPolygon",
      "outputs": [
        {
          "internalType": "uint256",
          "name": "",
          "type": "uint256"
        }
      ],
      "stateMutability": "view",
      "type": "function"
    },
    {
      "inputs": [
        {
          "internalType": "address",
          "name": "creator",
          "type": "address"
        }
      ],
      "name": "getCreatorCompSepoila",
      "outputs": [
        {
          "internalType": "uint256",
          "name": "",
          "type": "uint256"
        }
      ],
      "stateMutability": "view",
      "type": "function"
    },
    {
      "inputs": [
        {
          "internalType": "address",
          "name": "creator",
          "type": "address"
        }
      ],
      "name": "getDesigns",
      "outputs": [
        {
          "internalType": "string[]",
          "name": "",
          "type": "string[]"
        }
      ],
      "stateMutability": "view",
      "type": "function"
    },
    {
      "inputs": [
        {
          "internalType": "uint256",
          "name": "itemId",
          "type": "uint256"
        }
      ],
      "name": "getItemDetail",
      "outputs": [
        {
          "components": [
            {
              "internalType": "uint256",
              "name": "itemId",
              "type": "uint256"
            },
            {
              "internalType": "uint256",
              "name": "price",
              "type": "uint256"
            },
            {
              "internalType": "string",
              "name": "description",
              "type": "string"
            },
            {
              "internalType": "address",
              "name": "owner",
              "type": "address"
            }
          ],
          "internalType": "struct NFTMarketplace.Details",
          "name": "",
          "type": "tuple"
        }
      ],
      "stateMutability": "view",
      "type": "function"
    },
    {
      "inputs": [],
      "name": "itemCount",
      "outputs": [
        {
          "internalType": "uint256",
          "name": "",
          "type": "uint256"
        }
      ],
      "stateMutability": "view",
      "type": "function"
    },
    {
      "inputs": [
        {
          "internalType": "uint256",
          "name": "",
          "type": "uint256"
        }
      ],
      "name": "itemDetails",
      "outputs": [
        {
          "internalType": "uint256",
          "name": "itemId",
          "type": "uint256"
        },
        {
          "internalType": "uint256",
          "name": "price",
          "type": "uint256"
        },
        {
          "internalType": "string",
          "name": "description",
          "type": "string"
        },
        {
          "internalType": "address",
          "name": "owner",
          "type": "address"
        }
      ],
      "stateMutability": "view",
      "type": "function"
    },
    {
      "inputs": [
        {
          "internalType": "uint256",
          "name": "",
          "type": "uint256"
        }
      ],
      "name": "items",
      "outputs": [
        {
          "internalType": "uint256",
          "name": "id",
          "type": "uint256"
        },
        {
          "internalType": "string",
          "name": "description",
          "type": "string"
        },
        {
          "internalType": "contract IERC721",
          "name": "nft",
          "type": "address"
        },
        {
          "internalType": "uint256",
          "name": "nftType",
          "type": "uint256"
        },
        {
          "internalType": "uint256",
          "name": "price",
          "type": "uint256"
        },
        {
          "internalType": "address payable",
          "name": "owner",
          "type": "address"
        }
      ],
      "stateMutability": "view",
      "type": "function"
    },
    {
      "inputs": [
        {
          "internalType": "contract IERC721",
          "name": "_nft",
          "type": "address"
        },
        {
          "internalType": "string",
          "name": "description",
          "type": "string"
        },
        {
          "internalType": "uint256",
          "name": "tokenId",
          "type": "uint256"
        },
        {
          "internalType": "uint256",
          "name": "price",
          "type": "uint256"
        },
        {
          "internalType": "uint256",
          "name": "_type",
          "type": "uint256"
        }
      ],
      "name": "makeItem",
      "outputs": [],
      "stateMutability": "nonpayable",
      "type": "function"
    },
    {
      "inputs": [
        {
          "internalType": "uint256",
          "name": "",
          "type": "uint256"
        }
      ],
      "name": "noOfDesignsPerType",
      "outputs": [
        {
          "internalType": "uint256",
          "name": "",
          "type": "uint256"
        }
      ],
      "stateMutability": "view",
      "type": "function"
    },
    {
      "inputs": [
        {
          "internalType": "uint256",
          "name": "",
          "type": "uint256"
        }
      ],
      "name": "pricePerType",
      "outputs": [
        {
          "internalType": "uint256",
          "name": "",
          "type": "uint256"
        }
      ],
      "stateMutability": "view",
      "type": "function"
    },
    {
      "inputs": [
        {
          "internalType": "address",
          "name": "",
          "type": "address"
        }
      ],
      "name": "receiveCreatorCompPolygon",
      "outputs": [],
      "stateMutability": "nonpayable",
      "type": "function"
    },
    {
      "inputs": [
        {
          "internalType": "address",
          "name": "",
          "type": "address"
        }
      ],
      "name": "receiveCreatorCompSepoila",
      "outputs": [],
      "stateMutability": "nonpayable",
      "type": "function"
    },
    {
      "inputs": [
        {
          "internalType": "address",
          "name": "to",
          "type": "address"
        },
        {
          "internalType": "uint256",
          "name": "value",
          "type": "uint256"
        }
      ],
      "name": "sendMumbai",
      "outputs": [],
      "stateMutability": "nonpayable",
      "type": "function"
    },
    {
      "inputs": [],
      "name": "sendSepoila",
      "outputs": [],
      "stateMutability": "nonpayable",
      "type": "function"
    },
    {
      "inputs": [],
      "name": "unit",
      "outputs": [
        {
          "internalType": "uint256",
          "name": "",
          "type": "uint256"
        }
      ],
      "stateMutability": "view",
      "type": "function"
    }
  ],
  "bytecode": "0x6080604052670de0b6b3a764000060035534801561001c57600080fd5b5073cfba60b6597b02befe53f667ebe23b140c1f64fe600260006101000a81548173ffffffffffffffffffffffffffffffffffffffff021916908373ffffffffffffffffffffffffffffffffffffffff16021790555073f1e3a5842eeef51f2967b3f05d45dd4f4205ff40600160006101000a81548173ffffffffffffffffffffffffffffffffffffffff021916908373ffffffffffffffffffffffffffffffffffffffff1602179055506123a1806100d66000396000f3fe608060405234801561001057600080fd5b506004361061014d5760003560e01c80636f7399f1116100c3578063a3c3eb5c1161007c578063a3c3eb5c146103d9578063b4598fb4146103f5578063bfb231d214610427578063dd65aed51461045c578063ef7ab9801461048c578063fb71517d146104965761014d565b80636f7399f1146102f357806388d08dc2146103235780638a98a02e1461033f578063900c66001461036f578063907af6c01461038b5780639e6cf8ac146103a95761014d565b80632a88d9c4116101155780632a88d9c41461020b57806338fda9fd1461023b5780635164b3b81461025757806363a2fce91461028757806365e17c9d146102b75780636bfb0d01146102d55761014d565b80630b5d0cbb146101525780630df4a7d814610182578063134d42081461018c5780631fb4e3f0146101a857806327318028146101db575b600080fd5b61016c6004803603810190610167919061156c565b6104c6565b60405161017991906115b2565b60405180910390f35b61018a61050f565b005b6101a660048036038101906101a1919061177d565b61079e565b005b6101c260048036038101906101bd9190611814565b610a8d565b6040516101d294939291906118cf565b60405180910390f35b6101f560048036038101906101f09190611814565b610b65565b60405161020291906115b2565b60405180910390f35b6102256004803603810190610220919061156c565b610b7d565b60405161023291906115b2565b60405180910390f35b6102556004803603810190610250919061191b565b610b95565b005b610271600480360381019061026c9190611814565b610d0b565b60405161027e9190611a55565b60405180910390f35b6102a1600480360381019061029c919061156c565b610e34565b6040516102ae9190611b39565b60405180910390f35b6102bf610f4c565b6040516102cc9190611bba565b60405180910390f35b6102dd610f72565b6040516102ea91906115b2565b60405180910390f35b61030d60048036038101906103089190611814565b610f78565b60405161031a91906115b2565b60405180910390f35b61033d60048036038101906103389190611bd5565b610f90565b005b61035960048036038101906103549190611bd5565b611023565b6040516103669190611c15565b60405180910390f35b6103896004803603810190610384919061156c565b6110dc565b005b610393611124565b6040516103a091906115b2565b60405180910390f35b6103c360048036038101906103be919061156c565b61112a565b6040516103d091906115b2565b60405180910390f35b6103f360048036038101906103ee919061156c565b611173565b005b61040f600480360381019061040a9190611c37565b6111bb565b60405161041e93929190611c77565b60405180910390f35b610441600480360381019061043c9190611814565b6112aa565b60405161045396959493929190611cf7565b60405180910390f35b6104766004803603810190610471919061156c565b6113ae565b60405161048391906115b2565b60405180910390f35b6104946113c6565b005b6104b060048036038101906104ab919061156c565b6114a4565b6040516104bd91906115b2565b60405180910390f35b6000600b60008373ffffffffffffffffffffffffffffffffffffffff1673ffffffffffffffffffffffffffffffffffffffff168152602001908152602001600020549050919050565b60005b600481101561079b576000600960008381526020019081526020016000205490506000811461078757600081600a60008581526020019081526020016000205461055c9190611dbd565b905060005b828110156107845760006008600086815260200190815260200160002082815481106105905761058f611dee565b5b90600052602060002090600302016040518060600160405290816000820160009054906101000a900473ffffffffffffffffffffffffffffffffffffffff1673ffffffffffffffffffffffffffffffffffffffff1673ffffffffffffffffffffffffffffffffffffffff16815260200160018201805461060f90611e4c565b80601f016020809104026020016040519081016040528092919081815260200182805461063b90611e4c565b80156106885780601f1061065d57610100808354040283529160200191610688565b820191906000526020600020905b81548152906001019060200180831161066b57829003601f168201915b50505050508152602001600282015481525050905060018160400151036107085782600b6000836000015173ffffffffffffffffffffffffffffffffffffffff1673ffffffffffffffffffffffffffffffffffffffff16815260200190815260200160002060008282546106fc9190611e7d565b92505081905550610770565b600281604001510361076f5782600c6000836000015173ffffffffffffffffffffffffffffffffffffffff1673ffffffffffffffffffffffffffffffffffffffff16815260200190815260200160002060008282546107679190611e7d565b925050819055505b5b50808061077c90611eb1565b915050610561565b50505b50808061079390611eb1565b915050610512565b50565b600082116107e1576040517f08c379a00000000000000000000000000000000000000000000000000000000081526004016107d890611f45565b60405180910390fd5b6000808154809291906107f390611eb1565b91905055508473ffffffffffffffffffffffffffffffffffffffff166323b872dd3330866040518463ffffffff1660e01b815260040161083593929190611f65565b600060405180830381600087803b15801561084f57600080fd5b505af1158015610863573d6000803e3d6000fd5b505050506040518060c0016040528060005481526020018581526020018673ffffffffffffffffffffffffffffffffffffffff1681526020018281526020018381526020013373ffffffffffffffffffffffffffffffffffffffff1681525060046000805481526020019081526020016000206000820151816000015560208201518160010190816108f5919061213e565b5060408201518160020160006101000a81548173ffffffffffffffffffffffffffffffffffffffff021916908373ffffffffffffffffffffffffffffffffffffffff160217905550606082015181600301556080820151816004015560a08201518160050160006101000a81548173ffffffffffffffffffffffffffffffffffffffff021916908373ffffffffffffffffffffffffffffffffffffffff160217905550905050604051806080016040528060005481526020018381526020018581526020013373ffffffffffffffffffffffffffffffffffffffff16815250600560008054815260200190815260200160002060008201518160000155602082015181600101556040820151816002019081610a11919061213e565b5060608201518160030160006101000a81548173ffffffffffffffffffffffffffffffffffffffff021916908373ffffffffffffffffffffffffffffffffffffffff16021790555090505081600a60008381526020019081526020016000206000828254610a7f9190611e7d565b925050819055505050505050565b6005602052806000526040600020600091509050806000015490806001015490806002018054610abc90611e4c565b80601f0160208091040260200160405190810160405280929190818152602001828054610ae890611e4c565b8015610b355780601f10610b0a57610100808354040283529160200191610b35565b820191906000526020600020905b815481529060010190602001808311610b1857829003601f168201915b5050505050908060030160009054906101000a900473ffffffffffffffffffffffffffffffffffffffff16905084565b60096020528060005260406000206000915090505481565b600c6020528060005260406000206000915090505481565b600660003373ffffffffffffffffffffffffffffffffffffffff1673ffffffffffffffffffffffffffffffffffffffff16815260200190815260200160002081908060018154018082558091505060019003906000526020600020016000909190919091509081610c06919061213e565b506008600083815260200190815260200160002060405180606001604052803373ffffffffffffffffffffffffffffffffffffffff16815260200183815260200185815250908060018154018082558091505060019003906000526020600020906003020160009091909190915060008201518160000160006101000a81548173ffffffffffffffffffffffffffffffffffffffff021916908373ffffffffffffffffffffffffffffffffffffffff1602179055506020820151816001019081610cd0919061213e565b50604082015181600201555050600960008381526020019081526020016000206000815480929190610d0190611eb1565b9190505550505050565b610d136114bc565b600560008381526020019081526020016000206040518060800160405290816000820154815260200160018201548152602001600282018054610d5590611e4c565b80601f0160208091040260200160405190810160405280929190818152602001828054610d8190611e4c565b8015610dce5780601f10610da357610100808354040283529160200191610dce565b820191906000526020600020905b815481529060010190602001808311610db157829003601f168201915b505050505081526020016003820160009054906101000a900473ffffffffffffffffffffffffffffffffffffffff1673ffffffffffffffffffffffffffffffffffffffff1673ffffffffffffffffffffffffffffffffffffffff16815250509050919050565b6060600660008373ffffffffffffffffffffffffffffffffffffffff1673ffffffffffffffffffffffffffffffffffffffff168152602001908152602001600020805480602002602001604051908101604052809291908181526020016000905b82821015610f41578382906000526020600020018054610eb490611e4c565b80601f0160208091040260200160405190810160405280929190818152602001828054610ee090611e4c565b8015610f2d5780601f10610f0257610100808354040283529160200191610f2d565b820191906000526020600020905b815481529060010190602001808311610f1057829003601f168201915b505050505081526020019060010190610e95565b505050509050919050565b600260009054906101000a900473ffffffffffffffffffffffffffffffffffffffff1681565b60005481565b600a6020528060005260406000206000915090505481565b600260009054906101000a900473ffffffffffffffffffffffffffffffffffffffff1673ffffffffffffffffffffffffffffffffffffffff166303a8c48883836040518363ffffffff1660e01b8152600401610fed929190612210565b600060405180830381600087803b15801561100757600080fd5b505af115801561101b573d6000803e3d6000fd5b505050505050565b6006602052816000526040600020818154811061103f57600080fd5b9060005260206000200160009150915050805461105b90611e4c565b80601f016020809104026020016040519081016040528092919081815260200182805461108790611e4c565b80156110d45780601f106110a9576101008083540402835291602001916110d4565b820191906000526020600020905b8154815290600101906020018083116110b757829003601f168201915b505050505081565b6000600c60003373ffffffffffffffffffffffffffffffffffffffff1673ffffffffffffffffffffffffffffffffffffffff1681526020019081526020016000208190555050565b60035481565b6000600c60008373ffffffffffffffffffffffffffffffffffffffff1673ffffffffffffffffffffffffffffffffffffffff168152602001908152602001600020549050919050565b6000600b60003373ffffffffffffffffffffffffffffffffffffffff1673ffffffffffffffffffffffffffffffffffffffff1681526020019081526020016000208190555050565b600860205281600052604060002081815481106111d757600080fd5b9060005260206000209060030201600091509150508060000160009054906101000a900473ffffffffffffffffffffffffffffffffffffffff169080600101805461122190611e4c565b80601f016020809104026020016040519081016040528092919081815260200182805461124d90611e4c565b801561129a5780601f1061126f5761010080835404028352916020019161129a565b820191906000526020600020905b81548152906001019060200180831161127d57829003601f168201915b5050505050908060020154905083565b60046020528060005260406000206000915090508060000154908060010180546112d390611e4c565b80601f01602080910402602001604051908101604052809291908181526020018280546112ff90611e4c565b801561134c5780601f106113215761010080835404028352916020019161134c565b820191906000526020600020905b81548152906001019060200180831161132f57829003601f168201915b5050505050908060020160009054906101000a900473ffffffffffffffffffffffffffffffffffffffff16908060030154908060040154908060050160009054906101000a900473ffffffffffffffffffffffffffffffffffffffff16905086565b60076020528060005260406000206000915090505481565b600260009054906101000a900473ffffffffffffffffffffffffffffffffffffffff1673ffffffffffffffffffffffffffffffffffffffff166395e1402c67de41ba4fc9d91ad9734277d52b86dd03ab394754868d8c7b414acffc8873f1e3a5842eeef51f2967b3f05d45dd4f4205ff4066038d7ea4c680006040518563ffffffff1660e01b815260040161145e94939291906122c3565b6020604051808303816000875af115801561147d573d6000803e3d6000fd5b505050506040513d601f19601f820116820180604052508101906114a1919061233e565b50565b600b6020528060005260406000206000915090505481565b6040518060800160405280600081526020016000815260200160608152602001600073ffffffffffffffffffffffffffffffffffffffff1681525090565b6000604051905090565b600080fd5b600080fd5b600073ffffffffffffffffffffffffffffffffffffffff82169050919050565b60006115398261150e565b9050919050565b6115498161152e565b811461155457600080fd5b50565b60008135905061156681611540565b92915050565b60006020828403121561158257611581611504565b5b600061159084828501611557565b91505092915050565b6000819050919050565b6115ac81611599565b82525050565b60006020820190506115c760008301846115a3565b92915050565b60006115d88261152e565b9050919050565b6115e8816115cd565b81146115f357600080fd5b50565b600081359050611605816115df565b92915050565b600080fd5b600080fd5b6000601f19601f8301169050919050565b7f4e487b7100000000000000000000000000000000000000000000000000000000600052604160045260246000fd5b61165e82611615565b810181811067ffffffffffffffff8211171561167d5761167c611626565b5b80604052505050565b60006116906114fa565b905061169c8282611655565b919050565b600067ffffffffffffffff8211156116bc576116bb611626565b5b6116c582611615565b9050602081019050919050565b82818337600083830152505050565b60006116f46116ef846116a1565b611686565b9050828152602081018484840111156117105761170f611610565b5b61171b8482856116d2565b509392505050565b600082601f8301126117385761173761160b565b5b81356117488482602086016116e1565b91505092915050565b61175a81611599565b811461176557600080fd5b50565b60008135905061177781611751565b92915050565b600080600080600060a0868803121561179957611798611504565b5b60006117a7888289016115f6565b955050602086013567ffffffffffffffff8111156117c8576117c7611509565b5b6117d488828901611723565b94505060406117e588828901611768565b93505060606117f688828901611768565b925050608061180788828901611768565b9150509295509295909350565b60006020828403121561182a57611829611504565b5b600061183884828501611768565b91505092915050565b600081519050919050565b600082825260208201905092915050565b60005b8381101561187b578082015181840152602081019050611860565b60008484015250505050565b600061189282611841565b61189c818561184c565b93506118ac81856020860161185d565b6118b581611615565b840191505092915050565b6118c98161152e565b82525050565b60006080820190506118e460008301876115a3565b6118f160208301866115a3565b81810360408301526119038185611887565b905061191260608301846118c0565b95945050505050565b60008060006060848603121561193457611933611504565b5b600061194286828701611768565b935050602061195386828701611768565b925050604084013567ffffffffffffffff81111561197457611973611509565b5b61198086828701611723565b9150509250925092565b61199381611599565b82525050565b600082825260208201905092915050565b60006119b582611841565b6119bf8185611999565b93506119cf81856020860161185d565b6119d881611615565b840191505092915050565b6119ec8161152e565b82525050565b6000608083016000830151611a0a600086018261198a565b506020830151611a1d602086018261198a565b5060408301518482036040860152611a3582826119aa565b9150506060830151611a4a60608601826119e3565b508091505092915050565b60006020820190508181036000830152611a6f81846119f2565b905092915050565b600081519050919050565b600082825260208201905092915050565b6000819050602082019050919050565b6000611aaf83836119aa565b905092915050565b6000602082019050919050565b6000611acf82611a77565b611ad98185611a82565b935083602082028501611aeb85611a93565b8060005b85811015611b275784840389528151611b088582611aa3565b9450611b1383611ab7565b925060208a01995050600181019050611aef565b50829750879550505050505092915050565b60006020820190508181036000830152611b538184611ac4565b905092915050565b6000819050919050565b6000611b80611b7b611b768461150e565b611b5b565b61150e565b9050919050565b6000611b9282611b65565b9050919050565b6000611ba482611b87565b9050919050565b611bb481611b99565b82525050565b6000602082019050611bcf6000830184611bab565b92915050565b60008060408385031215611bec57611beb611504565b5b6000611bfa85828601611557565b9250506020611c0b85828601611768565b9150509250929050565b60006020820190508181036000830152611c2f8184611887565b905092915050565b60008060408385031215611c4e57611c4d611504565b5b6000611c5c85828601611768565b9250506020611c6d85828601611768565b9150509250929050565b6000606082019050611c8c60008301866118c0565b8181036020830152611c9e8185611887565b9050611cad60408301846115a3565b949350505050565b6000611cc082611b87565b9050919050565b611cd081611cb5565b82525050565b6000611ce18261150e565b9050919050565b611cf181611cd6565b82525050565b600060c082019050611d0c60008301896115a3565b8181036020830152611d1e8188611887565b9050611d2d6040830187611cc7565b611d3a60608301866115a3565b611d4760808301856115a3565b611d5460a0830184611ce8565b979650505050505050565b7f4e487b7100000000000000000000000000000000000000000000000000000000600052601260045260246000fd5b7f4e487b7100000000000000000000000000000000000000000000000000000000600052601160045260246000fd5b6000611dc882611599565b9150611dd383611599565b925082611de357611de2611d5f565b5b828204905092915050565b7f4e487b7100000000000000000000000000000000000000000000000000000000600052603260045260246000fd5b7f4e487b7100000000000000000000000000000000000000000000000000000000600052602260045260246000fd5b60006002820490506001821680611e6457607f821691505b602082108103611e7757611e76611e1d565b5b50919050565b6000611e8882611599565b9150611e9383611599565b9250828201905080821115611eab57611eaa611d8e565b5b92915050565b6000611ebc82611599565b91507fffffffffffffffffffffffffffffffffffffffffffffffffffffffffffffffff8203611eee57611eed611d8e565b5b600182019050919050565b7f5072696365206d7573742062652067726561746572207468616e207a65726f00600082015250565b6000611f2f601f8361184c565b9150611f3a82611ef9565b602082019050919050565b60006020820190508181036000830152611f5e81611f22565b9050919050565b6000606082019050611f7a60008301866118c0565b611f8760208301856118c0565b611f9460408301846115a3565b949350505050565b60008190508160005260206000209050919050565b60006020601f8301049050919050565b600082821b905092915050565b600060088302611ffe7fffffffffffffffffffffffffffffffffffffffffffffffffffffffffffffffff82611fc1565b6120088683611fc1565b95508019841693508086168417925050509392505050565b600061203b61203661203184611599565b611b5b565b611599565b9050919050565b6000819050919050565b61205583612020565b61206961206182612042565b848454611fce565b825550505050565b600090565b61207e612071565b61208981848461204c565b505050565b5b818110156120ad576120a2600082612076565b60018101905061208f565b5050565b601f8211156120f2576120c381611f9c565b6120cc84611fb1565b810160208510156120db578190505b6120ef6120e785611fb1565b83018261208e565b50505b505050565b600082821c905092915050565b6000612115600019846008026120f7565b1980831691505092915050565b600061212e8383612104565b9150826002028217905092915050565b61214782611841565b67ffffffffffffffff8111156121605761215f611626565b5b61216a8254611e4c565b6121758282856120b1565b600060209050601f8311600181146121a85760008415612196578287015190505b6121a08582612122565b865550612208565b601f1984166121b686611f9c565b60005b828110156121de578489015182556001820191506020850194506020810190506121b9565b868310156121fb57848901516121f7601f891682612104565b8355505b6001600288020188555050505b505050505050565b600060408201905061222560008301856118c0565b61223260208301846115a3565b9392505050565b6000819050919050565b600067ffffffffffffffff82169050919050565b600061227261226d61226884612239565b611b5b565b612243565b9050919050565b61228281612257565b82525050565b6000819050919050565b60006122ad6122a86122a384612288565b611b5b565b611599565b9050919050565b6122bd81612292565b82525050565b60006080820190506122d86000830187612279565b6122e560208301866118c0565b6122f260408301856118c0565b6122ff60608301846122b4565b95945050505050565b6000819050919050565b61231b81612308565b811461232657600080fd5b50565b60008151905061233881612312565b92915050565b60006020828403121561235457612353611504565b5b600061236284828501612329565b9150509291505056fea264697066735822122033d2079b8ee313b994f9a0b5755a71095aabd56451dc83d5f00b3998395d2a8364736f6c63430008130033",
  "linkReferences": {},
  "deployedLinkReferences": {}
}