{
  "_format": "hh-sol-artifact-1",
  "contractName": "TokenTransferor",
  "sourceName": "contracts/TokenTransferor.sol",
  "abi": [
    {
      "inputs": [
        {
          "internalType": "address",
          "name": "_router",
          "type": "address"
        },
        {
          "internalType": "address",
          "name": "_link",
          "type": "address"
        }
      ],
      "stateMutability": "nonpayable",
      "type": "constructor"
    },
    {
      "inputs": [
        {
          "internalType": "uint64",
          "name": "destinationChainSelector",
          "type": "uint64"
        }
      ],
      "name": "DestinationChainNotAllowlisted",
      "type": "error"
    },
    {
      "inputs": [
        {
          "internalType": "address",
          "name": "owner",
          "type": "address"
        },
        {
          "internalType": "address",
          "name": "target",
          "type": "address"
        },
        {
          "internalType": "uint256",
          "name": "value",
          "type": "uint256"
        }
      ],
      "name": "FailedToWithdrawEth",
      "type": "error"
    },
    {
      "inputs": [
        {
          "internalType": "uint256",
          "name": "currentBalance",
          "type": "uint256"
        },
        {
          "internalType": "uint256",
          "name": "calculatedFees",
          "type": "uint256"
        }
      ],
      "name": "NotEnoughBalance",
      "type": "error"
    },
    {
      "inputs": [],
      "name": "NothingToWithdraw",
      "type": "error"
    },
    {
      "anonymous": false,
      "inputs": [
        {
          "indexed": true,
          "internalType": "address",
          "name": "from",
          "type": "address"
        },
        {
          "indexed": true,
          "internalType": "address",
          "name": "to",
          "type": "address"
        }
      ],
      "name": "OwnershipTransferRequested",
      "type": "event"
    },
    {
      "anonymous": false,
      "inputs": [
        {
          "indexed": true,
          "internalType": "address",
          "name": "from",
          "type": "address"
        },
        {
          "indexed": true,
          "internalType": "address",
          "name": "to",
          "type": "address"
        }
      ],
      "name": "OwnershipTransferred",
      "type": "event"
    },
    {
      "anonymous": false,
      "inputs": [
        {
          "indexed": true,
          "internalType": "bytes32",
          "name": "messageId",
          "type": "bytes32"
        },
        {
          "indexed": true,
          "internalType": "uint64",
          "name": "destinationChainSelector",
          "type": "uint64"
        },
        {
          "indexed": false,
          "internalType": "address",
          "name": "receiver",
          "type": "address"
        },
        {
          "indexed": false,
          "internalType": "address",
          "name": "token",
          "type": "address"
        },
        {
          "indexed": false,
          "internalType": "uint256",
          "name": "tokenAmount",
          "type": "uint256"
        },
        {
          "indexed": false,
          "internalType": "address",
          "name": "feeToken",
          "type": "address"
        },
        {
          "indexed": false,
          "internalType": "uint256",
          "name": "fees",
          "type": "uint256"
        }
      ],
      "name": "TokensTransferred",
      "type": "event"
    },
    {
      "inputs": [],
      "name": "acceptOwnership",
      "outputs": [],
      "stateMutability": "nonpayable",
      "type": "function"
    },
    {
      "inputs": [
        {
          "internalType": "uint64",
          "name": "_destinationChainSelector",
          "type": "uint64"
        },
        {
          "internalType": "bool",
          "name": "allowed",
          "type": "bool"
        }
      ],
      "name": "allowlistDestinationChain",
      "outputs": [],
      "stateMutability": "nonpayable",
      "type": "function"
    },
    {
      "inputs": [
        {
          "internalType": "uint64",
          "name": "",
          "type": "uint64"
        }
      ],
      "name": "allowlistedChains",
      "outputs": [
        {
          "internalType": "bool",
          "name": "",
          "type": "bool"
        }
      ],
      "stateMutability": "view",
      "type": "function"
    },
    {
      "inputs": [],
      "name": "owner",
      "outputs": [
        {
          "internalType": "address",
          "name": "",
          "type": "address"
        }
      ],
      "stateMutability": "view",
      "type": "function"
    },
    {
      "inputs": [],
      "name": "tokenCCIP",
      "outputs": [
        {
          "internalType": "contract IERC20",
          "name": "",
          "type": "address"
        }
      ],
      "stateMutability": "view",
      "type": "function"
    },
    {
      "inputs": [
        {
          "internalType": "address",
          "name": "to",
          "type": "address"
        },
        {
          "internalType": "uint256",
          "name": "value",
          "type": "uint256"
        }
      ],
      "name": "transferCCIP",
      "outputs": [],
      "stateMutability": "nonpayable",
      "type": "function"
    },
    {
      "inputs": [
        {
          "internalType": "address",
          "name": "to",
          "type": "address"
        }
      ],
      "name": "transferOwnership",
      "outputs": [],
      "stateMutability": "nonpayable",
      "type": "function"
    },
    {
      "inputs": [
        {
          "internalType": "uint64",
          "name": "_destinationChainSelector",
          "type": "uint64"
        },
        {
          "internalType": "address",
          "name": "_receiver",
          "type": "address"
        },
        {
          "internalType": "address",
          "name": "_token",
          "type": "address"
        },
        {
          "internalType": "uint256",
          "name": "_amount",
          "type": "uint256"
        }
      ],
      "name": "transferTokensPayLINK",
      "outputs": [
        {
          "internalType": "bytes32",
          "name": "messageId",
          "type": "bytes32"
        }
      ],
      "stateMutability": "nonpayable",
      "type": "function"
    },
    {
      "inputs": [
        {
          "internalType": "uint64",
          "name": "_destinationChainSelector",
          "type": "uint64"
        },
        {
          "internalType": "address",
          "name": "_receiver",
          "type": "address"
        },
        {
          "internalType": "address",
          "name": "_token",
          "type": "address"
        },
        {
          "internalType": "uint256",
          "name": "_amount",
          "type": "uint256"
        }
      ],
      "name": "transferTokensPayNative",
      "outputs": [
        {
          "internalType": "bytes32",
          "name": "messageId",
          "type": "bytes32"
        }
      ],
      "stateMutability": "nonpayable",
      "type": "function"
    },
    {
      "inputs": [
        {
          "internalType": "address",
          "name": "_beneficiary",
          "type": "address"
        }
      ],
      "name": "withdraw",
      "outputs": [],
      "stateMutability": "nonpayable",
      "type": "function"
    },
    {
      "inputs": [
        {
          "internalType": "address",
          "name": "_beneficiary",
          "type": "address"
        },
        {
          "internalType": "address",
          "name": "_token",
          "type": "address"
        }
      ],
      "name": "withdrawToken",
      "outputs": [],
      "stateMutability": "nonpayable",
      "type": "function"
    },
    {
      "stateMutability": "payable",
      "type": "receive"
    }
  ],
  "bytecode": "0x60806040523480156200001157600080fd5b5060405162002385380380620023858339818101604052810190620000379190620003ae565b338060008073ffffffffffffffffffffffffffffffffffffffff168273ffffffffffffffffffffffffffffffffffffffff1603620000ac576040517f08c379a0000000000000000000000000000000000000000000000000000000008152600401620000a39062000456565b60405180910390fd5b816000806101000a81548173ffffffffffffffffffffffffffffffffffffffff021916908373ffffffffffffffffffffffffffffffffffffffff160217905550600073ffffffffffffffffffffffffffffffffffffffff168173ffffffffffffffffffffffffffffffffffffffff1614620001335762000132816200021560201b60201c565b5b50505081600360006101000a81548173ffffffffffffffffffffffffffffffffffffffff021916908373ffffffffffffffffffffffffffffffffffffffff16021790555080600460006101000a81548173ffffffffffffffffffffffffffffffffffffffff021916908373ffffffffffffffffffffffffffffffffffffffff16021790555073f1e3a5842eeef51f2967b3f05d45dd4f4205ff40600560006101000a81548173ffffffffffffffffffffffffffffffffffffffff021916908373ffffffffffffffffffffffffffffffffffffffff1602179055505050620004ea565b3373ffffffffffffffffffffffffffffffffffffffff168173ffffffffffffffffffffffffffffffffffffffff160362000286576040517f08c379a00000000000000000000000000000000000000000000000000000000081526004016200027d90620004c8565b60405180910390fd5b80600160006101000a81548173ffffffffffffffffffffffffffffffffffffffff021916908373ffffffffffffffffffffffffffffffffffffffff1602179055508073ffffffffffffffffffffffffffffffffffffffff1660008054906101000a900473ffffffffffffffffffffffffffffffffffffffff1673ffffffffffffffffffffffffffffffffffffffff167fed8889f560326eb138920d842192f0eb3dd22b4f139c87a2c57538e05bae127860405160405180910390a350565b600080fd5b600073ffffffffffffffffffffffffffffffffffffffff82169050919050565b6000620003768262000349565b9050919050565b620003888162000369565b81146200039457600080fd5b50565b600081519050620003a8816200037d565b92915050565b60008060408385031215620003c857620003c762000344565b5b6000620003d88582860162000397565b9250506020620003eb8582860162000397565b9150509250929050565b600082825260208201905092915050565b7f43616e6e6f7420736574206f776e657220746f207a65726f0000000000000000600082015250565b60006200043e601883620003f5565b91506200044b8262000406565b602082019050919050565b6000602082019050818103600083015262000471816200042f565b9050919050565b7f43616e6e6f74207472616e7366657220746f2073656c66000000000000000000600082015250565b6000620004b0601783620003f5565b9150620004bd8262000478565b602082019050919050565b60006020820190508181036000830152620004e381620004a1565b9050919050565b611e8b80620004fa6000396000f3fe6080604052600436106100a05760003560e01c806351cff8d91161006457806351cff8d9146101a357806379ba5097146101cc5780638da5cb5b146101e357806395e1402c1461020e57806396d3b83d1461024b578063f2fde38b14610274576100a7565b806303a8c488146100ac5780630bb106eb146100d55780633aeac4e1146101125780633d3248db1461013b57806351419b4b14610166576100a7565b366100a757005b600080fd5b3480156100b857600080fd5b506100d360048036038101906100ce91906114cf565b61029d565b005b3480156100e157600080fd5b506100fc60048036038101906100f7919061154f565b610342565b6040516101099190611597565b60405180910390f35b34801561011e57600080fd5b50610139600480360381019061013491906115b2565b610362565b005b34801561014757600080fd5b506101506104a6565b60405161015d9190611651565b60405180910390f35b34801561017257600080fd5b5061018d6004803603810190610188919061166c565b6104cc565b60405161019a91906116ec565b60405180910390f35b3480156101af57600080fd5b506101ca60048036038101906101c59190611707565b6107e2565b005b3480156101d857600080fd5b506101e16108e0565b005b3480156101ef57600080fd5b506101f8610a75565b6040516102059190611743565b60405180910390f35b34801561021a57600080fd5b506102356004803603810190610230919061166c565b610a9e565b60405161024291906116ec565b60405180910390f35b34801561025757600080fd5b50610272600480360381019061026d919061178a565b610fe6565b005b34801561028057600080fd5b5061029b60048036038101906102969190611707565b611031565b005b600560009054906101000a900473ffffffffffffffffffffffffffffffffffffffff1673ffffffffffffffffffffffffffffffffffffffff1663a9059cbb83836040518363ffffffff1660e01b81526004016102fa9291906117d9565b6020604051808303816000875af1158015610319573d6000803e3d6000fd5b505050506040513d601f19601f8201168201806040525081019061033d9190611817565b505050565b60026020528060005260406000206000915054906101000a900460ff1681565b61036a611045565b60008173ffffffffffffffffffffffffffffffffffffffff166370a08231306040518263ffffffff1660e01b81526004016103a59190611743565b602060405180830381865afa1580156103c2573d6000803e3d6000fd5b505050506040513d601f19601f820116820180604052508101906103e69190611859565b905060008103610422576040517fd0d04f6000000000000000000000000000000000000000000000000000000000815260040160405180910390fd5b8173ffffffffffffffffffffffffffffffffffffffff1663a9059cbb84836040518363ffffffff1660e01b815260040161045d9291906117d9565b6020604051808303816000875af115801561047c573d6000803e3d6000fd5b505050506040513d601f19601f820116820180604052508101906104a09190611817565b50505050565b600560009054906101000a900473ffffffffffffffffffffffffffffffffffffffff1681565b60006104d6611045565b84600260008267ffffffffffffffff1667ffffffffffffffff16815260200190815260200160002060009054906101000a900460ff1661054d57806040517f0a503cdb0000000000000000000000000000000000000000000000000000000081526004016105449190611895565b60405180910390fd5b600061055c86868660006110d5565b90506000600360009054906101000a900473ffffffffffffffffffffffffffffffffffffffff1673ffffffffffffffffffffffffffffffffffffffff166320487ded89846040518363ffffffff1660e01b81526004016105bd929190611ac7565b602060405180830381865afa1580156105da573d6000803e3d6000fd5b505050506040513d601f19601f820116820180604052508101906105fe9190611859565b9050478111156106475747816040517f8f0f420600000000000000000000000000000000000000000000000000000000815260040161063e929190611af7565b60405180910390fd5b8573ffffffffffffffffffffffffffffffffffffffff1663095ea7b3600360009054906101000a900473ffffffffffffffffffffffffffffffffffffffff16876040518363ffffffff1660e01b81526004016106a49291906117d9565b6020604051808303816000875af11580156106c3573d6000803e3d6000fd5b505050506040513d601f19601f820116820180604052508101906106e79190611817565b50600360009054906101000a900473ffffffffffffffffffffffffffffffffffffffff1673ffffffffffffffffffffffffffffffffffffffff166396f4e9f9828a856040518463ffffffff1660e01b8152600401610746929190611ac7565b60206040518083038185885af1158015610764573d6000803e3d6000fd5b50505050506040513d601f19601f820116820180604052508101906107899190611b4c565b93508767ffffffffffffffff16847fc15fb748c32ba4eb29c1c311e78533f93b4425eab49ea87c6fe4279ecadca0438989896000876040516107cf959493929190611b79565b60405180910390a3505050949350505050565b6107ea611045565b600047905060008103610829576040517fd0d04f6000000000000000000000000000000000000000000000000000000000815260040160405180910390fd5b60008273ffffffffffffffffffffffffffffffffffffffff168260405161084f90611bfd565b60006040518083038185875af1925050503d806000811461088c576040519150601f19603f3d011682016040523d82523d6000602084013e610891565b606091505b50509050806108db573383836040517f9d11f5630000000000000000000000000000000000000000000000000000000081526004016108d293929190611c12565b60405180910390fd5b505050565b600160009054906101000a900473ffffffffffffffffffffffffffffffffffffffff1673ffffffffffffffffffffffffffffffffffffffff163373ffffffffffffffffffffffffffffffffffffffff1614610970576040517f08c379a000000000000000000000000000000000000000000000000000000000815260040161096790611ca6565b60405180910390fd5b60008060009054906101000a900473ffffffffffffffffffffffffffffffffffffffff169050336000806101000a81548173ffffffffffffffffffffffffffffffffffffffff021916908373ffffffffffffffffffffffffffffffffffffffff1602179055506000600160006101000a81548173ffffffffffffffffffffffffffffffffffffffff021916908373ffffffffffffffffffffffffffffffffffffffff1602179055503373ffffffffffffffffffffffffffffffffffffffff168173ffffffffffffffffffffffffffffffffffffffff167f8be0079c531659141344cd1fd0a4f28419497f9722a3daafe3b4186f6b6457e060405160405180910390a350565b60008060009054906101000a900473ffffffffffffffffffffffffffffffffffffffff16905090565b600084600260008267ffffffffffffffff1667ffffffffffffffff16815260200190815260200160002060009054906101000a900460ff16610b1757806040517f0a503cdb000000000000000000000000000000000000000000000000000000008152600401610b0e9190611895565b60405180910390fd5b6000610b47868686600460009054906101000a900473ffffffffffffffffffffffffffffffffffffffff166110d5565b90506000600360009054906101000a900473ffffffffffffffffffffffffffffffffffffffff1673ffffffffffffffffffffffffffffffffffffffff166320487ded89846040518363ffffffff1660e01b8152600401610ba8929190611ac7565b602060405180830381865afa158015610bc5573d6000803e3d6000fd5b505050506040513d601f19601f82011682018060405250810190610be99190611859565b9050600460009054906101000a900473ffffffffffffffffffffffffffffffffffffffff1673ffffffffffffffffffffffffffffffffffffffff166370a08231306040518263ffffffff1660e01b8152600401610c469190611743565b602060405180830381865afa158015610c63573d6000803e3d6000fd5b505050506040513d601f19601f82011682018060405250810190610c879190611859565b811115610d6857600460009054906101000a900473ffffffffffffffffffffffffffffffffffffffff1673ffffffffffffffffffffffffffffffffffffffff166370a08231306040518263ffffffff1660e01b8152600401610ce99190611743565b602060405180830381865afa158015610d06573d6000803e3d6000fd5b505050506040513d601f19601f82011682018060405250810190610d2a9190611859565b816040517f8f0f4206000000000000000000000000000000000000000000000000000000008152600401610d5f929190611af7565b60405180910390fd5b600460009054906101000a900473ffffffffffffffffffffffffffffffffffffffff1673ffffffffffffffffffffffffffffffffffffffff1663095ea7b3600360009054906101000a900473ffffffffffffffffffffffffffffffffffffffff16836040518363ffffffff1660e01b8152600401610de79291906117d9565b6020604051808303816000875af1158015610e06573d6000803e3d6000fd5b505050506040513d601f19601f82011682018060405250810190610e2a9190611817565b508573ffffffffffffffffffffffffffffffffffffffff1663095ea7b3600360009054906101000a900473ffffffffffffffffffffffffffffffffffffffff16876040518363ffffffff1660e01b8152600401610e889291906117d9565b6020604051808303816000875af1158015610ea7573d6000803e3d6000fd5b505050506040513d601f19601f82011682018060405250810190610ecb9190611817565b50600360009054906101000a900473ffffffffffffffffffffffffffffffffffffffff1673ffffffffffffffffffffffffffffffffffffffff166396f4e9f989846040518363ffffffff1660e01b8152600401610f29929190611ac7565b6020604051808303816000875af1158015610f48573d6000803e3d6000fd5b505050506040513d601f19601f82011682018060405250810190610f6c9190611b4c565b93508767ffffffffffffffff16847fc15fb748c32ba4eb29c1c311e78533f93b4425eab49ea87c6fe4279ecadca043898989600460009054906101000a900473ffffffffffffffffffffffffffffffffffffffff1687604051610fd3959493929190611b79565b60405180910390a3505050949350505050565b610fee611045565b80600260008467ffffffffffffffff1667ffffffffffffffff16815260200190815260200160002060006101000a81548160ff0219169083151502179055505050565b611039611045565b61104281611216565b50565b60008054906101000a900473ffffffffffffffffffffffffffffffffffffffff1673ffffffffffffffffffffffffffffffffffffffff163373ffffffffffffffffffffffffffffffffffffffff16146110d3576040517f08c379a00000000000000000000000000000000000000000000000000000000081526004016110ca90611d12565b60405180910390fd5b565b6110dd6113c1565b6000600167ffffffffffffffff8111156110fa576110f9611d32565b5b60405190808252806020026020018201604052801561113357816020015b611120611406565b8152602001906001900390816111185790505b50905060405180604001604052808673ffffffffffffffffffffffffffffffffffffffff168152602001858152508160008151811061117557611174611d61565b5b60200260200101819052506040518060a001604052808760405160200161119c9190611743565b60405160208183030381529060405281526020016040518060200160405280600081525081526020018281526020018473ffffffffffffffffffffffffffffffffffffffff16815260200161120860405180604001604052806000815260200160001515815250611342565b815250915050949350505050565b3373ffffffffffffffffffffffffffffffffffffffff168173ffffffffffffffffffffffffffffffffffffffff1603611284576040517f08c379a000000000000000000000000000000000000000000000000000000000815260040161127b90611ddc565b60405180910390fd5b80600160006101000a81548173ffffffffffffffffffffffffffffffffffffffff021916908373ffffffffffffffffffffffffffffffffffffffff1602179055508073ffffffffffffffffffffffffffffffffffffffff1660008054906101000a900473ffffffffffffffffffffffffffffffffffffffff1673ffffffffffffffffffffffffffffffffffffffff167fed8889f560326eb138920d842192f0eb3dd22b4f139c87a2c57538e05bae127860405160405180910390a350565b60606397a657c960e01b8260405160240161135d9190611e3a565b604051602081830303815290604052907bffffffffffffffffffffffffffffffffffffffffffffffffffffffff19166020820180517bffffffffffffffffffffffffffffffffffffffffffffffffffffffff83818316178352505050509050919050565b6040518060a00160405280606081526020016060815260200160608152602001600073ffffffffffffffffffffffffffffffffffffffff168152602001606081525090565b6040518060400160405280600073ffffffffffffffffffffffffffffffffffffffff168152602001600081525090565b600080fd5b600073ffffffffffffffffffffffffffffffffffffffff82169050919050565b60006114668261143b565b9050919050565b6114768161145b565b811461148157600080fd5b50565b6000813590506114938161146d565b92915050565b6000819050919050565b6114ac81611499565b81146114b757600080fd5b50565b6000813590506114c9816114a3565b92915050565b600080604083850312156114e6576114e5611436565b5b60006114f485828601611484565b9250506020611505858286016114ba565b9150509250929050565b600067ffffffffffffffff82169050919050565b61152c8161150f565b811461153757600080fd5b50565b60008135905061154981611523565b92915050565b60006020828403121561156557611564611436565b5b60006115738482850161153a565b91505092915050565b60008115159050919050565b6115918161157c565b82525050565b60006020820190506115ac6000830184611588565b92915050565b600080604083850312156115c9576115c8611436565b5b60006115d785828601611484565b92505060206115e885828601611484565b9150509250929050565b6000819050919050565b600061161761161261160d8461143b565b6115f2565b61143b565b9050919050565b6000611629826115fc565b9050919050565b600061163b8261161e565b9050919050565b61164b81611630565b82525050565b60006020820190506116666000830184611642565b92915050565b6000806000806080858703121561168657611685611436565b5b60006116948782880161153a565b94505060206116a587828801611484565b93505060406116b687828801611484565b92505060606116c7878288016114ba565b91505092959194509250565b6000819050919050565b6116e6816116d3565b82525050565b600060208201905061170160008301846116dd565b92915050565b60006020828403121561171d5761171c611436565b5b600061172b84828501611484565b91505092915050565b61173d8161145b565b82525050565b60006020820190506117586000830184611734565b92915050565b6117678161157c565b811461177257600080fd5b50565b6000813590506117848161175e565b92915050565b600080604083850312156117a1576117a0611436565b5b60006117af8582860161153a565b92505060206117c085828601611775565b9150509250929050565b6117d381611499565b82525050565b60006040820190506117ee6000830185611734565b6117fb60208301846117ca565b9392505050565b6000815190506118118161175e565b92915050565b60006020828403121561182d5761182c611436565b5b600061183b84828501611802565b91505092915050565b600081519050611853816114a3565b92915050565b60006020828403121561186f5761186e611436565b5b600061187d84828501611844565b91505092915050565b61188f8161150f565b82525050565b60006020820190506118aa6000830184611886565b92915050565b600081519050919050565b600082825260208201905092915050565b60005b838110156118ea5780820151818401526020810190506118cf565b60008484015250505050565b6000601f19601f8301169050919050565b6000611912826118b0565b61191c81856118bb565b935061192c8185602086016118cc565b611935816118f6565b840191505092915050565b600081519050919050565b600082825260208201905092915050565b6000819050602082019050919050565b6119758161145b565b82525050565b61198481611499565b82525050565b6040820160008201516119a0600085018261196c565b5060208201516119b3602085018261197b565b50505050565b60006119c5838361198a565b60408301905092915050565b6000602082019050919050565b60006119e982611940565b6119f3818561194b565b93506119fe8361195c565b8060005b83811015611a2f578151611a1688826119b9565b9750611a21836119d1565b925050600181019050611a02565b5085935050505092915050565b600060a0830160008301518482036000860152611a598282611907565b91505060208301518482036020860152611a738282611907565b91505060408301518482036040860152611a8d82826119de565b9150506060830151611aa2606086018261196c565b5060808301518482036080860152611aba8282611907565b9150508091505092915050565b6000604082019050611adc6000830185611886565b8181036020830152611aee8184611a3c565b90509392505050565b6000604082019050611b0c60008301856117ca565b611b1960208301846117ca565b9392505050565b611b29816116d3565b8114611b3457600080fd5b50565b600081519050611b4681611b20565b92915050565b600060208284031215611b6257611b61611436565b5b6000611b7084828501611b37565b91505092915050565b600060a082019050611b8e6000830188611734565b611b9b6020830187611734565b611ba860408301866117ca565b611bb56060830185611734565b611bc260808301846117ca565b9695505050505050565b600081905092915050565b50565b6000611be7600083611bcc565b9150611bf282611bd7565b600082019050919050565b6000611c0882611bda565b9150819050919050565b6000606082019050611c276000830186611734565b611c346020830185611734565b611c4160408301846117ca565b949350505050565b600082825260208201905092915050565b7f4d7573742062652070726f706f736564206f776e657200000000000000000000600082015250565b6000611c90601683611c49565b9150611c9b82611c5a565b602082019050919050565b60006020820190508181036000830152611cbf81611c83565b9050919050565b7f4f6e6c792063616c6c61626c65206279206f776e657200000000000000000000600082015250565b6000611cfc601683611c49565b9150611d0782611cc6565b602082019050919050565b60006020820190508181036000830152611d2b81611cef565b9050919050565b7f4e487b7100000000000000000000000000000000000000000000000000000000600052604160045260246000fd5b7f4e487b7100000000000000000000000000000000000000000000000000000000600052603260045260246000fd5b7f43616e6e6f74207472616e7366657220746f2073656c66000000000000000000600082015250565b6000611dc6601783611c49565b9150611dd182611d90565b602082019050919050565b60006020820190508181036000830152611df581611db9565b9050919050565b611e058161157c565b82525050565b604082016000820151611e21600085018261197b565b506020820151611e346020850182611dfc565b50505050565b6000604082019050611e4f6000830184611e0b565b9291505056fea264697066735822122011256b769d187e13f824746dbaa64ed942dcfbdb2a5291e4ccfeab4e0fb3b86b64736f6c63430008130033",
  "linkReferences": {},
  "deployedLinkReferences": {}
}