{
  "_format": "hh-sol-artifact-1",
  "contractName": "NFTMarketplace",
  "sourceName": "contracts/NFTMarketplace.sol",
  "abi": [
    {
      "inputs": [],
      "stateMutability": "nonpayable",
      "type": "constructor"
    },
    {
      "inputs": [
        {
          "internalType": "address",
          "name": "",
          "type": "address"
        }
      ],
      "name": "CreatorCompensation",
      "outputs": [
        {
          "internalType": "uint256",
          "name": "",
          "type": "uint256"
        }
      ],
      "stateMutability": "view",
      "type": "function"
    },
    {
      "inputs": [
        {
          "internalType": "uint256",
          "name": "",
          "type": "uint256"
        },
        {
          "internalType": "uint256",
          "name": "",
          "type": "uint256"
        }
      ],
      "name": "DesignByType",
      "outputs": [
        {
          "internalType": "address",
          "name": "creator",
          "type": "address"
        },
        {
          "internalType": "string",
          "name": "hash",
          "type": "string"
        },
        {
          "internalType": "uint256",
          "name": "chain",
          "type": "uint256"
        }
      ],
      "stateMutability": "view",
      "type": "function"
    },
    {
      "inputs": [
        {
          "internalType": "address",
          "name": "",
          "type": "address"
        },
        {
          "internalType": "uint256",
          "name": "",
          "type": "uint256"
        }
      ],
      "name": "Designs",
      "outputs": [
        {
          "internalType": "string",
          "name": "",
          "type": "string"
        }
      ],
      "stateMutability": "view",
      "type": "function"
    },
    {
      "inputs": [
        {
          "internalType": "address",
          "name": "",
          "type": "address"
        }
      ],
      "name": "PolygonChainPrice",
      "outputs": [
        {
          "internalType": "uint256",
          "name": "",
          "type": "uint256"
        }
      ],
      "stateMutability": "view",
      "type": "function"
    },
    {
      "inputs": [
        {
          "internalType": "address",
          "name": "",
          "type": "address"
        }
      ],
      "name": "SepoilaChainPrice",
      "outputs": [
        {
          "internalType": "uint256",
          "name": "",
          "type": "uint256"
        }
      ],
      "stateMutability": "view",
      "type": "function"
    },
    {
      "inputs": [
        {
          "internalType": "uint256",
          "name": "chain",
          "type": "uint256"
        },
        {
          "internalType": "uint256",
          "name": "_designtype",
          "type": "uint256"
        },
        {
          "internalType": "string",
          "name": "_hash",
          "type": "string"
        }
      ],
      "name": "addDesign",
      "outputs": [],
      "stateMutability": "nonpayable",
      "type": "function"
    },
    {
      "inputs": [],
      "name": "autopayCreators",
      "outputs": [],
      "stateMutability": "nonpayable",
      "type": "function"
    },
    {
      "inputs": [],
      "name": "feeAccount",
      "outputs": [
        {
          "internalType": "contract ITokenTransferor",
          "name": "",
          "type": "address"
        }
      ],
      "stateMutability": "view",
      "type": "function"
    },
    {
      "inputs": [
        {
          "internalType": "address",
          "name": "creator",
          "type": "address"
        }
      ],
      "name": "getCreatorCompPolygon",
      "outputs": [
        {
          "internalType": "uint256",
          "name": "",
          "type": "uint256"
        }
      ],
      "stateMutability": "view",
      "type": "function"
    },
    {
      "inputs": [
        {
          "internalType": "address",
          "name": "creator",
          "type": "address"
        }
      ],
      "name": "getCreatorCompSepoila",
      "outputs": [
        {
          "internalType": "uint256",
          "name": "",
          "type": "uint256"
        }
      ],
      "stateMutability": "view",
      "type": "function"
    },
    {
      "inputs": [
        {
          "internalType": "address",
          "name": "creator",
          "type": "address"
        }
      ],
      "name": "getDesigns",
      "outputs": [
        {
          "internalType": "string[]",
          "name": "",
          "type": "string[]"
        }
      ],
      "stateMutability": "view",
      "type": "function"
    },
    {
      "inputs": [
        {
          "internalType": "uint256",
          "name": "itemId",
          "type": "uint256"
        }
      ],
      "name": "getItemDetail",
      "outputs": [
        {
          "components": [
            {
              "internalType": "uint256",
              "name": "itemId",
              "type": "uint256"
            },
            {
              "internalType": "uint256",
              "name": "price",
              "type": "uint256"
            },
            {
              "internalType": "string",
              "name": "description",
              "type": "string"
            },
            {
              "internalType": "address",
              "name": "owner",
              "type": "address"
            }
          ],
          "internalType": "struct NFTMarketplace.Details",
          "name": "",
          "type": "tuple"
        }
      ],
      "stateMutability": "view",
      "type": "function"
    },
    {
      "inputs": [],
      "name": "itemCount",
      "outputs": [
        {
          "internalType": "uint256",
          "name": "",
          "type": "uint256"
        }
      ],
      "stateMutability": "view",
      "type": "function"
    },
    {
      "inputs": [
        {
          "internalType": "uint256",
          "name": "",
          "type": "uint256"
        }
      ],
      "name": "itemDetails",
      "outputs": [
        {
          "internalType": "uint256",
          "name": "itemId",
          "type": "uint256"
        },
        {
          "internalType": "uint256",
          "name": "price",
          "type": "uint256"
        },
        {
          "internalType": "string",
          "name": "description",
          "type": "string"
        },
        {
          "internalType": "address",
          "name": "owner",
          "type": "address"
        }
      ],
      "stateMutability": "view",
      "type": "function"
    },
    {
      "inputs": [
        {
          "internalType": "uint256",
          "name": "",
          "type": "uint256"
        }
      ],
      "name": "items",
      "outputs": [
        {
          "internalType": "uint256",
          "name": "id",
          "type": "uint256"
        },
        {
          "internalType": "string",
          "name": "description",
          "type": "string"
        },
        {
          "internalType": "contract IERC721",
          "name": "nft",
          "type": "address"
        },
        {
          "internalType": "uint256",
          "name": "nftType",
          "type": "uint256"
        },
        {
          "internalType": "uint256",
          "name": "price",
          "type": "uint256"
        },
        {
          "internalType": "address payable",
          "name": "owner",
          "type": "address"
        }
      ],
      "stateMutability": "view",
      "type": "function"
    },
    {
      "inputs": [
        {
          "internalType": "contract IERC721",
          "name": "_nft",
          "type": "address"
        },
        {
          "internalType": "string",
          "name": "description",
          "type": "string"
        },
        {
          "internalType": "uint256",
          "name": "tokenId",
          "type": "uint256"
        },
        {
          "internalType": "uint256",
          "name": "price",
          "type": "uint256"
        },
        {
          "internalType": "uint256",
          "name": "_type",
          "type": "uint256"
        }
      ],
      "name": "makeItem",
      "outputs": [],
      "stateMutability": "nonpayable",
      "type": "function"
    },
    {
      "inputs": [
        {
          "internalType": "uint256",
          "name": "",
          "type": "uint256"
        }
      ],
      "name": "noOfDesignsPerType",
      "outputs": [
        {
          "internalType": "uint256",
          "name": "",
          "type": "uint256"
        }
      ],
      "stateMutability": "view",
      "type": "function"
    },
    {
      "inputs": [],
      "name": "notificationPolygon",
      "outputs": [
        {
          "internalType": "contract IPUSHCommInterface",
          "name": "",
          "type": "address"
        }
      ],
      "stateMutability": "view",
      "type": "function"
    },
    {
      "inputs": [],
      "name": "notificationSepoila",
      "outputs": [
        {
          "internalType": "contract IPUSHCommInterface",
          "name": "",
          "type": "address"
        }
      ],
      "stateMutability": "view",
      "type": "function"
    },
    {
      "inputs": [
        {
          "internalType": "uint256",
          "name": "",
          "type": "uint256"
        }
      ],
      "name": "pricePerType",
      "outputs": [
        {
          "internalType": "uint256",
          "name": "",
          "type": "uint256"
        }
      ],
      "stateMutability": "view",
      "type": "function"
    },
    {
      "inputs": [
        {
          "internalType": "address",
          "name": "",
          "type": "address"
        }
      ],
      "name": "receiveCreatorCompPolygon",
      "outputs": [],
      "stateMutability": "nonpayable",
      "type": "function"
    },
    {
      "inputs": [
        {
          "internalType": "address",
          "name": "",
          "type": "address"
        }
      ],
      "name": "receiveCreatorCompSepoila",
      "outputs": [],
      "stateMutability": "nonpayable",
      "type": "function"
    },
    {
      "inputs": [
        {
          "internalType": "address",
          "name": "to",
          "type": "address"
        },
        {
          "internalType": "uint256",
          "name": "value",
          "type": "uint256"
        }
      ],
      "name": "sendMumbai",
      "outputs": [],
      "stateMutability": "nonpayable",
      "type": "function"
    },
    {
      "inputs": [],
      "name": "sendSepoila",
      "outputs": [],
      "stateMutability": "nonpayable",
      "type": "function"
    },
    {
      "inputs": [],
      "name": "unit",
      "outputs": [
        {
          "internalType": "uint256",
          "name": "",
          "type": "uint256"
        }
      ],
      "stateMutability": "view",
      "type": "function"
    }
  ],
  "bytecode": "0x6080604052670de0b6b3a764000060055534801561001c57600080fd5b5073759c09b5b5e02b8023e17e01990838c9fe19877e600260006101000a81548173ffffffffffffffffffffffffffffffffffffffff021916908373ffffffffffffffffffffffffffffffffffffffff16021790555073f1e3a5842eeef51f2967b3f05d45dd4f4205ff40600160006101000a81548173ffffffffffffffffffffffffffffffffffffffff021916908373ffffffffffffffffffffffffffffffffffffffff16021790555073b3971bcef2d791bc4027bbfedfb47319a4aaaaaa600360006101000a81548173ffffffffffffffffffffffffffffffffffffffff021916908373ffffffffffffffffffffffffffffffffffffffff160217905550730c34d54a09cfe75bccd878a469206ae77e0fe6e7600460006101000a81548173ffffffffffffffffffffffffffffffffffffffff021916908373ffffffffffffffffffffffffffffffffffffffff16021790555061286c806101806000396000f3fe608060405234801561001057600080fd5b50600436106101735760003560e01c80636bfb0d01116100de5780639e6cf8ac11610097578063bfb231d211610071578063bfb231d214610489578063dd65aed5146104be578063ef7ab980146104ee578063fb71517d146104f857610173565b80639e6cf8ac1461040b578063a3c3eb5c1461043b578063b4598fb41461045757610173565b80636bfb0d01146103375780636f7399f11461035557806388d08dc2146103855780638a98a02e146103a1578063900c6600146103d1578063907af6c0146103ed57610173565b80632731802811610130578063273180281461023d5780632a88d9c41461026d57806338fda9fd1461029d5780635164b3b8146102b957806363a2fce9146102e957806365e17c9d1461031957610173565b8063083b09b6146101785780630b5d0cbb146101965780630df4a7d8146101c6578063134d4208146101d057806316167107146101ec5780631fb4e3f01461020a575b600080fd5b610180610528565b60405161018d9190611797565b60405180910390f35b6101b060048036038101906101ab9190611804565b61054e565b6040516101bd919061184a565b60405180910390f35b6101ce610597565b005b6101ea60048036038101906101e59190611a15565b610996565b005b6101f4610c85565b6040516102019190611797565b60405180910390f35b610224600480360381019061021f9190611aac565b610cab565b6040516102349493929190611b67565b60405180910390f35b61025760048036038101906102529190611aac565b610d83565b604051610264919061184a565b60405180910390f35b61028760048036038101906102829190611804565b610d9b565b604051610294919061184a565b60405180910390f35b6102b760048036038101906102b29190611bb3565b610db3565b005b6102d360048036038101906102ce9190611aac565b610f29565b6040516102e09190611ced565b60405180910390f35b61030360048036038101906102fe9190611804565b611052565b6040516103109190611dd1565b60405180910390f35b61032161116a565b60405161032e9190611e14565b60405180910390f35b61033f611190565b60405161034c919061184a565b60405180910390f35b61036f600480360381019061036a9190611aac565b611196565b60405161037c919061184a565b60405180910390f35b61039f600480360381019061039a9190611e2f565b6111ae565b005b6103bb60048036038101906103b69190611e2f565b611241565b6040516103c89190611e6f565b60405180910390f35b6103eb60048036038101906103e69190611804565b6112fa565b005b6103f5611342565b604051610402919061184a565b60405180910390f35b61042560048036038101906104209190611804565b611348565b604051610432919061184a565b60405180910390f35b61045560048036038101906104509190611804565b611391565b005b610471600480360381019061046c9190611e91565b6113d9565b60405161048093929190611ed1565b60405180910390f35b6104a3600480360381019061049e9190611aac565b6114c8565b6040516104b596959493929190611f51565b60405180910390f35b6104d860048036038101906104d39190611804565b6115cc565b6040516104e5919061184a565b60405180910390f35b6104f66115e4565b005b610512600480360381019061050d9190611804565b6116c2565b60405161051f919061184a565b60405180910390f35b600360009054906101000a900473ffffffffffffffffffffffffffffffffffffffff1681565b6000600d60008373ffffffffffffffffffffffffffffffffffffffff1673ffffffffffffffffffffffffffffffffffffffff168152602001908152602001600020549050919050565b60005b6004811015610993576000600b60008381526020019081526020016000205490506000811461097f57600081600c6000858152602001908152602001600020546105e49190612017565b905060005b8281101561097c576000600a6000868152602001908152602001600020828154811061061857610617612048565b5b90600052602060002090600302016040518060600160405290816000820160009054906101000a900473ffffffffffffffffffffffffffffffffffffffff1673ffffffffffffffffffffffffffffffffffffffff1673ffffffffffffffffffffffffffffffffffffffff168152602001600182018054610697906120a6565b80601f01602080910402602001604051908101604052809291908181526020018280546106c3906120a6565b80156107105780601f106106e557610100808354040283529160200191610710565b820191906000526020600020905b8154815290600101906020018083116106f357829003601f168201915b50505050508152602001600282015481525050905060018160400151036108485782600d6000836000015173ffffffffffffffffffffffffffffffffffffffff1673ffffffffffffffffffffffffffffffffffffffff168152602001908152602001600020600082825461078491906120d7565b9250508190555073b3971bcef2d791bc4027bbfedfb47319a4aaaaaa73ffffffffffffffffffffffffffffffffffffffff1663ba3d69d77332985bbc9461e9f3913f216e6e4dc069d0a7fa8083600001516040516020016107e490612292565b6040516020818303038152906040526040518463ffffffff1660e01b81526004016108119392919061233e565b600060405180830381600087803b15801561082b57600080fd5b505af115801561083f573d6000803e3d6000fd5b50505050610968565b60028160400151036109675782600e6000836000015173ffffffffffffffffffffffffffffffffffffffff1673ffffffffffffffffffffffffffffffffffffffff16815260200190815260200160002060008282546108a791906120d7565b92505081905550730c34d54a09cfe75bccd878a469206ae77e0fe6e773ffffffffffffffffffffffffffffffffffffffff1663ba3d69d77332985bbc9461e9f3913f216e6e4dc069d0a7fa80836000015160405160200161090790612292565b6040516020818303038152906040526040518463ffffffff1660e01b81526004016109349392919061233e565b600060405180830381600087803b15801561094e57600080fd5b505af1158015610962573d6000803e3d6000fd5b505050505b5b5080806109749061237c565b9150506105e9565b50505b50808061098b9061237c565b91505061059a565b50565b600082116109d9576040517f08c379a00000000000000000000000000000000000000000000000000000000081526004016109d090612410565b60405180910390fd5b6000808154809291906109eb9061237c565b91905055508473ffffffffffffffffffffffffffffffffffffffff166323b872dd3330866040518463ffffffff1660e01b8152600401610a2d93929190612430565b600060405180830381600087803b158015610a4757600080fd5b505af1158015610a5b573d6000803e3d6000fd5b505050506040518060c0016040528060005481526020018581526020018673ffffffffffffffffffffffffffffffffffffffff1681526020018281526020018381526020013373ffffffffffffffffffffffffffffffffffffffff168152506006600080548152602001908152602001600020600082015181600001556020820151816001019081610aed9190612609565b5060408201518160020160006101000a81548173ffffffffffffffffffffffffffffffffffffffff021916908373ffffffffffffffffffffffffffffffffffffffff160217905550606082015181600301556080820151816004015560a08201518160050160006101000a81548173ffffffffffffffffffffffffffffffffffffffff021916908373ffffffffffffffffffffffffffffffffffffffff160217905550905050604051806080016040528060005481526020018381526020018581526020013373ffffffffffffffffffffffffffffffffffffffff16815250600760008054815260200190815260200160002060008201518160000155602082015181600101556040820151816002019081610c099190612609565b5060608201518160030160006101000a81548173ffffffffffffffffffffffffffffffffffffffff021916908373ffffffffffffffffffffffffffffffffffffffff16021790555090505081600c60008381526020019081526020016000206000828254610c7791906120d7565b925050819055505050505050565b600460009054906101000a900473ffffffffffffffffffffffffffffffffffffffff1681565b6007602052806000526040600020600091509050806000015490806001015490806002018054610cda906120a6565b80601f0160208091040260200160405190810160405280929190818152602001828054610d06906120a6565b8015610d535780601f10610d2857610100808354040283529160200191610d53565b820191906000526020600020905b815481529060010190602001808311610d3657829003601f168201915b5050505050908060030160009054906101000a900473ffffffffffffffffffffffffffffffffffffffff16905084565b600b6020528060005260406000206000915090505481565b600e6020528060005260406000206000915090505481565b600860003373ffffffffffffffffffffffffffffffffffffffff1673ffffffffffffffffffffffffffffffffffffffff16815260200190815260200160002081908060018154018082558091505060019003906000526020600020016000909190919091509081610e249190612609565b50600a600083815260200190815260200160002060405180606001604052803373ffffffffffffffffffffffffffffffffffffffff16815260200183815260200185815250908060018154018082558091505060019003906000526020600020906003020160009091909190915060008201518160000160006101000a81548173ffffffffffffffffffffffffffffffffffffffff021916908373ffffffffffffffffffffffffffffffffffffffff1602179055506020820151816001019081610eee9190612609565b50604082015181600201555050600b60008381526020019081526020016000206000815480929190610f1f9061237c565b9190505550505050565b610f316116da565b600760008381526020019081526020016000206040518060800160405290816000820154815260200160018201548152602001600282018054610f73906120a6565b80601f0160208091040260200160405190810160405280929190818152602001828054610f9f906120a6565b8015610fec5780601f10610fc157610100808354040283529160200191610fec565b820191906000526020600020905b815481529060010190602001808311610fcf57829003601f168201915b505050505081526020016003820160009054906101000a900473ffffffffffffffffffffffffffffffffffffffff1673ffffffffffffffffffffffffffffffffffffffff1673ffffffffffffffffffffffffffffffffffffffff16815250509050919050565b6060600860008373ffffffffffffffffffffffffffffffffffffffff1673ffffffffffffffffffffffffffffffffffffffff168152602001908152602001600020805480602002602001604051908101604052809291908181526020016000905b8282101561115f5783829060005260206000200180546110d2906120a6565b80601f01602080910402602001604051908101604052809291908181526020018280546110fe906120a6565b801561114b5780601f106111205761010080835404028352916020019161114b565b820191906000526020600020905b81548152906001019060200180831161112e57829003601f168201915b5050505050815260200190600101906110b3565b505050509050919050565b600260009054906101000a900473ffffffffffffffffffffffffffffffffffffffff1681565b60005481565b600c6020528060005260406000206000915090505481565b600260009054906101000a900473ffffffffffffffffffffffffffffffffffffffff1673ffffffffffffffffffffffffffffffffffffffff166303a8c48883836040518363ffffffff1660e01b815260040161120b9291906126db565b600060405180830381600087803b15801561122557600080fd5b505af1158015611239573d6000803e3d6000fd5b505050505050565b6008602052816000526040600020818154811061125d57600080fd5b90600052602060002001600091509150508054611279906120a6565b80601f01602080910402602001604051908101604052809291908181526020018280546112a5906120a6565b80156112f25780601f106112c7576101008083540402835291602001916112f2565b820191906000526020600020905b8154815290600101906020018083116112d557829003601f168201915b505050505081565b6000600e60003373ffffffffffffffffffffffffffffffffffffffff1673ffffffffffffffffffffffffffffffffffffffff1681526020019081526020016000208190555050565b60055481565b6000600e60008373ffffffffffffffffffffffffffffffffffffffff1673ffffffffffffffffffffffffffffffffffffffff168152602001908152602001600020549050919050565b6000600d60003373ffffffffffffffffffffffffffffffffffffffff1673ffffffffffffffffffffffffffffffffffffffff1681526020019081526020016000208190555050565b600a60205281600052604060002081815481106113f557600080fd5b9060005260206000209060030201600091509150508060000160009054906101000a900473ffffffffffffffffffffffffffffffffffffffff169080600101805461143f906120a6565b80601f016020809104026020016040519081016040528092919081815260200182805461146b906120a6565b80156114b85780601f1061148d576101008083540402835291602001916114b8565b820191906000526020600020905b81548152906001019060200180831161149b57829003601f168201915b5050505050908060020154905083565b60066020528060005260406000206000915090508060000154908060010180546114f1906120a6565b80601f016020809104026020016040519081016040528092919081815260200182805461151d906120a6565b801561156a5780601f1061153f5761010080835404028352916020019161156a565b820191906000526020600020905b81548152906001019060200180831161154d57829003601f168201915b5050505050908060020160009054906101000a900473ffffffffffffffffffffffffffffffffffffffff16908060030154908060040154908060050160009054906101000a900473ffffffffffffffffffffffffffffffffffffffff16905086565b60096020528060005260406000206000915090505481565b600260009054906101000a900473ffffffffffffffffffffffffffffffffffffffff1673ffffffffffffffffffffffffffffffffffffffff166395e1402c67de41ba4fc9d91ad9734277d52b86dd03ab394754868d8c7b414acffc8873f1e3a5842eeef51f2967b3f05d45dd4f4205ff4066038d7ea4c680006040518563ffffffff1660e01b815260040161167c949392919061278e565b6020604051808303816000875af115801561169b573d6000803e3d6000fd5b505050506040513d601f19601f820116820180604052508101906116bf9190612809565b50565b600d6020528060005260406000206000915090505481565b6040518060800160405280600081526020016000815260200160608152602001600073ffffffffffffffffffffffffffffffffffffffff1681525090565b600073ffffffffffffffffffffffffffffffffffffffff82169050919050565b6000819050919050565b600061175d61175861175384611718565b611738565b611718565b9050919050565b600061176f82611742565b9050919050565b600061178182611764565b9050919050565b61179181611776565b82525050565b60006020820190506117ac6000830184611788565b92915050565b6000604051905090565b600080fd5b600080fd5b60006117d182611718565b9050919050565b6117e1816117c6565b81146117ec57600080fd5b50565b6000813590506117fe816117d8565b92915050565b60006020828403121561181a576118196117bc565b5b6000611828848285016117ef565b91505092915050565b6000819050919050565b61184481611831565b82525050565b600060208201905061185f600083018461183b565b92915050565b6000611870826117c6565b9050919050565b61188081611865565b811461188b57600080fd5b50565b60008135905061189d81611877565b92915050565b600080fd5b600080fd5b6000601f19601f8301169050919050565b7f4e487b7100000000000000000000000000000000000000000000000000000000600052604160045260246000fd5b6118f6826118ad565b810181811067ffffffffffffffff82111715611915576119146118be565b5b80604052505050565b60006119286117b2565b905061193482826118ed565b919050565b600067ffffffffffffffff821115611954576119536118be565b5b61195d826118ad565b9050602081019050919050565b82818337600083830152505050565b600061198c61198784611939565b61191e565b9050828152602081018484840111156119a8576119a76118a8565b5b6119b384828561196a565b509392505050565b600082601f8301126119d0576119cf6118a3565b5b81356119e0848260208601611979565b91505092915050565b6119f281611831565b81146119fd57600080fd5b50565b600081359050611a0f816119e9565b92915050565b600080600080600060a08688031215611a3157611a306117bc565b5b6000611a3f8882890161188e565b955050602086013567ffffffffffffffff811115611a6057611a5f6117c1565b5b611a6c888289016119bb565b9450506040611a7d88828901611a00565b9350506060611a8e88828901611a00565b9250506080611a9f88828901611a00565b9150509295509295909350565b600060208284031215611ac257611ac16117bc565b5b6000611ad084828501611a00565b91505092915050565b600081519050919050565b600082825260208201905092915050565b60005b83811015611b13578082015181840152602081019050611af8565b60008484015250505050565b6000611b2a82611ad9565b611b348185611ae4565b9350611b44818560208601611af5565b611b4d816118ad565b840191505092915050565b611b61816117c6565b82525050565b6000608082019050611b7c600083018761183b565b611b89602083018661183b565b8181036040830152611b9b8185611b1f565b9050611baa6060830184611b58565b95945050505050565b600080600060608486031215611bcc57611bcb6117bc565b5b6000611bda86828701611a00565b9350506020611beb86828701611a00565b925050604084013567ffffffffffffffff811115611c0c57611c0b6117c1565b5b611c18868287016119bb565b9150509250925092565b611c2b81611831565b82525050565b600082825260208201905092915050565b6000611c4d82611ad9565b611c578185611c31565b9350611c67818560208601611af5565b611c70816118ad565b840191505092915050565b611c84816117c6565b82525050565b6000608083016000830151611ca26000860182611c22565b506020830151611cb56020860182611c22565b5060408301518482036040860152611ccd8282611c42565b9150506060830151611ce26060860182611c7b565b508091505092915050565b60006020820190508181036000830152611d078184611c8a565b905092915050565b600081519050919050565b600082825260208201905092915050565b6000819050602082019050919050565b6000611d478383611c42565b905092915050565b6000602082019050919050565b6000611d6782611d0f565b611d718185611d1a565b935083602082028501611d8385611d2b565b8060005b85811015611dbf5784840389528151611da08582611d3b565b9450611dab83611d4f565b925060208a01995050600181019050611d87565b50829750879550505050505092915050565b60006020820190508181036000830152611deb8184611d5c565b905092915050565b6000611dfe82611764565b9050919050565b611e0e81611df3565b82525050565b6000602082019050611e296000830184611e05565b92915050565b60008060408385031215611e4657611e456117bc565b5b6000611e54858286016117ef565b9250506020611e6585828601611a00565b9150509250929050565b60006020820190508181036000830152611e898184611b1f565b905092915050565b60008060408385031215611ea857611ea76117bc565b5b6000611eb685828601611a00565b9250506020611ec785828601611a00565b9150509250929050565b6000606082019050611ee66000830186611b58565b8181036020830152611ef88185611b1f565b9050611f07604083018461183b565b949350505050565b6000611f1a82611764565b9050919050565b611f2a81611f0f565b82525050565b6000611f3b82611718565b9050919050565b611f4b81611f30565b82525050565b600060c082019050611f66600083018961183b565b8181036020830152611f788188611b1f565b9050611f876040830187611f21565b611f94606083018661183b565b611fa1608083018561183b565b611fae60a0830184611f42565b979650505050505050565b7f4e487b7100000000000000000000000000000000000000000000000000000000600052601260045260246000fd5b7f4e487b7100000000000000000000000000000000000000000000000000000000600052601160045260246000fd5b600061202282611831565b915061202d83611831565b92508261203d5761203c611fb9565b5b828204905092915050565b7f4e487b7100000000000000000000000000000000000000000000000000000000600052603260045260246000fd5b7f4e487b7100000000000000000000000000000000000000000000000000000000600052602260045260246000fd5b600060028204905060018216806120be57607f821691505b6020821081036120d1576120d0612077565b5b50919050565b60006120e282611831565b91506120ed83611831565b925082820190508082111561210557612104611fe8565b5b92915050565b600081905092915050565b7f3000000000000000000000000000000000000000000000000000000000000000600082015250565b600061214c60018361210b565b915061215782612116565b600182019050919050565b7f2b00000000000000000000000000000000000000000000000000000000000000600082015250565b600061219860018361210b565b91506121a382612162565b600182019050919050565b7f3300000000000000000000000000000000000000000000000000000000000000600082015250565b60006121e460018361210b565b91506121ef826121ae565b600182019050919050565b7f596f752068617665207265636965766564000000000000000000000000000000600082015250565b600061223060118361210b565b915061223b826121fa565b601182019050919050565b7f302e303120434349500000000000000000000000000000000000000000000000600082015250565b600061227c60098361210b565b915061228782612246565b600982019050919050565b600061229d8261213f565b91506122a88261218b565b91506122b3826121d7565b91506122be8261218b565b91506122c982612223565b91506122d48261218b565b91506122df8261226f565b9150819050919050565b600081519050919050565b600082825260208201905092915050565b6000612310826122e9565b61231a81856122f4565b935061232a818560208601611af5565b612333816118ad565b840191505092915050565b60006060820190506123536000830186611b58565b6123606020830185611b58565b81810360408301526123728184612305565b9050949350505050565b600061238782611831565b91507fffffffffffffffffffffffffffffffffffffffffffffffffffffffffffffffff82036123b9576123b8611fe8565b5b600182019050919050565b7f5072696365206d7573742062652067726561746572207468616e207a65726f00600082015250565b60006123fa601f83611ae4565b9150612405826123c4565b602082019050919050565b60006020820190508181036000830152612429816123ed565b9050919050565b60006060820190506124456000830186611b58565b6124526020830185611b58565b61245f604083018461183b565b949350505050565b60008190508160005260206000209050919050565b60006020601f8301049050919050565b600082821b905092915050565b6000600883026124c97fffffffffffffffffffffffffffffffffffffffffffffffffffffffffffffffff8261248c565b6124d3868361248c565b95508019841693508086168417925050509392505050565b60006125066125016124fc84611831565b611738565b611831565b9050919050565b6000819050919050565b612520836124eb565b61253461252c8261250d565b848454612499565b825550505050565b600090565b61254961253c565b612554818484612517565b505050565b5b818110156125785761256d600082612541565b60018101905061255a565b5050565b601f8211156125bd5761258e81612467565b6125978461247c565b810160208510156125a6578190505b6125ba6125b28561247c565b830182612559565b50505b505050565b600082821c905092915050565b60006125e0600019846008026125c2565b1980831691505092915050565b60006125f983836125cf565b9150826002028217905092915050565b61261282611ad9565b67ffffffffffffffff81111561262b5761262a6118be565b5b61263582546120a6565b61264082828561257c565b600060209050601f8311600181146126735760008415612661578287015190505b61266b85826125ed565b8655506126d3565b601f19841661268186612467565b60005b828110156126a957848901518255600182019150602085019450602081019050612684565b868310156126c657848901516126c2601f8916826125cf565b8355505b6001600288020188555050505b505050505050565b60006040820190506126f06000830185611b58565b6126fd602083018461183b565b9392505050565b6000819050919050565b600067ffffffffffffffff82169050919050565b600061273d61273861273384612704565b611738565b61270e565b9050919050565b61274d81612722565b82525050565b6000819050919050565b600061277861277361276e84612753565b611738565b611831565b9050919050565b6127888161275d565b82525050565b60006080820190506127a36000830187612744565b6127b06020830186611b58565b6127bd6040830185611b58565b6127ca606083018461277f565b95945050505050565b6000819050919050565b6127e6816127d3565b81146127f157600080fd5b50565b600081519050612803816127dd565b92915050565b60006020828403121561281f5761281e6117bc565b5b600061282d848285016127f4565b9150509291505056fea26469706673582212208f212f78944299608cad028862a01dca2d2f615b858ce0c8788efb3487b93bb664736f6c63430008130033",
  "linkReferences": {},
  "deployedLinkReferences": {}
}